{
  "contractName": "Escrow",
  "abi": [
    {
      "inputs": [
        {
          "internalType": "address payable",
          "name": "_seller",
          "type": "address"
        },
        {
          "internalType": "address payable",
          "name": "_buyer",
          "type": "address"
        },
        {
          "internalType": "address",
          "name": "_factory",
          "type": "address"
        }
      ],
      "stateMutability": "nonpayable",
      "type": "constructor"
    },
    {
      "stateMutability": "payable",
      "type": "fallback"
    },
    {
      "inputs": [],
      "name": "buyer",
      "outputs": [
        {
          "internalType": "address payable",
          "name": "",
          "type": "address"
        }
      ],
      "stateMutability": "view",
      "type": "function"
    },
    {
      "inputs": [],
      "name": "seller",
      "outputs": [
        {
          "internalType": "address payable",
          "name": "",
          "type": "address"
        }
      ],
      "stateMutability": "view",
      "type": "function"
    },
    {
      "inputs": [],
      "name": "getBuyer",
      "outputs": [
        {
          "internalType": "address",
          "name": "",
          "type": "address"
        }
      ],
      "stateMutability": "view",
      "type": "function"
    },
    {
      "inputs": [],
      "name": "getSeller",
      "outputs": [
        {
          "internalType": "address",
          "name": "",
          "type": "address"
        }
      ],
      "stateMutability": "view",
      "type": "function"
    },
    {
      "inputs": [],
      "name": "getState",
      "outputs": [
        {
          "internalType": "enum contractState",
          "name": "",
          "type": "uint8"
        }
      ],
      "stateMutability": "view",
      "type": "function"
    },
    {
      "inputs": [
        {
          "internalType": "enum contractState",
          "name": "_state",
          "type": "uint8"
        }
      ],
      "name": "setState",
      "outputs": [],
      "stateMutability": "nonpayable",
      "type": "function"
    },
    {
      "inputs": [
        {
          "internalType": "uint256",
          "name": "_time",
          "type": "uint256"
        }
      ],
      "name": "setBuyerConfirmedTimeStamp",
      "outputs": [],
      "stateMutability": "nonpayable",
      "type": "function"
    },
    {
      "inputs": [],
      "name": "getBuyerConfirmedTimeStamp",
      "outputs": [
        {
          "internalType": "uint256",
          "name": "",
          "type": "uint256"
        }
      ],
      "stateMutability": "view",
      "type": "function"
    },
    {
      "inputs": [],
      "name": "getSellerConfirmedTimeStamp",
      "outputs": [
        {
          "internalType": "uint256",
          "name": "",
          "type": "uint256"
        }
      ],
      "stateMutability": "view",
      "type": "function"
    },
    {
      "inputs": [],
      "name": "getBuyerSatisfiedTimeStamp",
      "outputs": [
        {
          "internalType": "uint256",
          "name": "",
          "type": "uint256"
        }
      ],
      "stateMutability": "view",
      "type": "function"
    },
    {
      "inputs": [],
      "name": "getCompletedTimeStamp",
      "outputs": [
        {
          "internalType": "uint256",
          "name": "",
          "type": "uint256"
        }
      ],
      "stateMutability": "view",
      "type": "function"
    },
    {
      "inputs": [],
      "name": "accept",
      "outputs": [],
      "stateMutability": "nonpayable",
      "type": "function"
    },
    {
      "inputs": [],
      "name": "cancel",
      "outputs": [],
      "stateMutability": "nonpayable",
      "type": "function"
    },
    {
      "inputs": [],
      "name": "complete",
      "outputs": [],
      "stateMutability": "nonpayable",
      "type": "function"
    },
    {
      "inputs": [
        {
          "internalType": "address payable",
          "name": "_owner",
          "type": "address"
        },
        {
          "internalType": "uint256",
          "name": "_fee",
          "type": "uint256"
        }
      ],
      "name": "sendFee",
      "outputs": [],
      "stateMutability": "nonpayable",
      "type": "function"
    },
    {
      "inputs": [
        {
          "internalType": "uint256",
          "name": "_percent_seller",
          "type": "uint256"
        },
        {
          "internalType": "uint256",
          "name": "_percent_buyer",
          "type": "uint256"
        }
      ],
      "name": "ownerDistribute",
      "outputs": [],
      "stateMutability": "nonpayable",
      "type": "function"
    }
  ],
  "bytecode": "0x60806040523480156200001157600080fd5b5060405162001324380380620013248339818101604052810190620000379190620001df565b826000806101000a81548173ffffffffffffffffffffffffffffffffffffffff021916908373ffffffffffffffffffffffffffffffffffffffff16021790555081600160006101000a81548173ffffffffffffffffffffffffffffffffffffffff021916908373ffffffffffffffffffffffffffffffffffffffff16021790555080600260006101000a81548173ffffffffffffffffffffffffffffffffffffffff021916908373ffffffffffffffffffffffffffffffffffffffff1602179055506000600760006101000a81548160ff021916908360048111156200012257620001216200023b565b5b02179055505050506200026a565b600080fd5b600073ffffffffffffffffffffffffffffffffffffffff82169050919050565b6000620001628262000135565b9050919050565b620001748162000155565b81146200018057600080fd5b50565b600081519050620001948162000169565b92915050565b6000620001a78262000135565b9050919050565b620001b9816200019a565b8114620001c557600080fd5b50565b600081519050620001d981620001ae565b92915050565b600080600060608486031215620001fb57620001fa62000130565b5b60006200020b8682870162000183565b93505060206200021e8682870162000183565b92505060406200023186828701620001c8565b9150509250925092565b7f4e487b7100000000000000000000000000000000000000000000000000000000600052602160045260246000fd5b6110aa806200027a6000396000f3fe6080604052600436106100f75760003560e01c806363d70ec71161008a578063d1ce13ce11610059578063d1ce13ce146102ce578063dbd0e1b6146102f9578063ea8a1af014610324578063ec2bc6ef1461033b576100f8565b806363d70ec7146102265780637150d8ae1461024f5780639cb99c6e1461027a578063c6ff1d83146102a3576100f8565b806352fa2643116100c657806352fa26431461017e57806356de96db146101a95780635b99b6c2146101d2578063603daf9a146101fb576100f8565b806308551a53146100fa5780631865c57d146101255780632852b71c14610150578063522e117714610167576100f8565b5b005b34801561010657600080fd5b5061010f610366565b60405161011c9190610c6f565b60405180910390f35b34801561013157600080fd5b5061013a61038a565b6040516101479190610d01565b60405180910390f35b34801561015c57600080fd5b506101656103a1565b005b34801561017357600080fd5b5061017c610465565b005b34801561018a57600080fd5b50610193610597565b6040516101a09190610d35565b60405180910390f35b3480156101b557600080fd5b506101d060048036038101906101cb9190610d7a565b6105a1565b005b3480156101de57600080fd5b506101f960048036038101906101f49190610dd3565b61065e565b005b34801561020757600080fd5b506102106108de565b60405161021d9190610e34565b60405180910390f35b34801561023257600080fd5b5061024d60048036038101906102489190610e7b565b610908565b005b34801561025b57600080fd5b506102646109fa565b6040516102719190610c6f565b60405180910390f35b34801561028657600080fd5b506102a1600480360381019061029c9190610ebb565b610a20565b005b3480156102af57600080fd5b506102b8610aba565b6040516102c59190610d35565b60405180910390f35b3480156102da57600080fd5b506102e3610ac4565b6040516102f09190610d35565b60405180910390f35b34801561030557600080fd5b5061030e610ace565b60405161031b9190610e34565b60405180910390f35b34801561033057600080fd5b50610339610af7565b005b34801561034757600080fd5b50610350610c24565b60405161035d9190610d35565b60405180910390f35b60008054906101000a900473ffffffffffffffffffffffffffffffffffffffff1681565b6000600760009054906101000a900460ff16905090565b600260009054906101000a900473ffffffffffffffffffffffffffffffffffffffff1673ffffffffffffffffffffffffffffffffffffffff163373ffffffffffffffffffffffffffffffffffffffff1614610431576040517f08c379a000000000000000000000000000000000000000000000000000000000815260040161042890610f6b565b60405180910390fd5b6002600760006101000a81548160ff0219169083600481111561045757610456610c8a565b5b021790555042600481905550565b600260009054906101000a900473ffffffffffffffffffffffffffffffffffffffff1673ffffffffffffffffffffffffffffffffffffffff163373ffffffffffffffffffffffffffffffffffffffff16146104f5576040517f08c379a00000000000000000000000000000000000000000000000000000000081526004016104ec90610f6b565b60405180910390fd5b60008054906101000a900473ffffffffffffffffffffffffffffffffffffffff1673ffffffffffffffffffffffffffffffffffffffff166108fc479081150290604051600060405180830381858888f1935050505015801561055b573d6000803e3d6000fd5b5042600581905550426006819055506003600760006101000a81548160ff021916908360048111156105905761058f610c8a565b5b0217905550565b6000600654905090565b600260009054906101000a900473ffffffffffffffffffffffffffffffffffffffff1673ffffffffffffffffffffffffffffffffffffffff163373ffffffffffffffffffffffffffffffffffffffff1614610631576040517f08c379a000000000000000000000000000000000000000000000000000000000815260040161062890610f6b565b60405180910390fd5b80600760006101000a81548160ff0219169083600481111561065657610655610c8a565b5b021790555050565b600260009054906101000a900473ffffffffffffffffffffffffffffffffffffffff1673ffffffffffffffffffffffffffffffffffffffff163373ffffffffffffffffffffffffffffffffffffffff16146106ee576040517f08c379a00000000000000000000000000000000000000000000000000000000081526004016106e590610f6b565b60405180910390fd5b600082141561076557600160009054906101000a900473ffffffffffffffffffffffffffffffffffffffff1673ffffffffffffffffffffffffffffffffffffffff166108fc479081150290604051600060405180830381858888f1935050505015801561075f573d6000803e3d6000fd5b506108da565b60008114156107da5760008054906101000a900473ffffffffffffffffffffffffffffffffffffffff1673ffffffffffffffffffffffffffffffffffffffff166108fc479081150290604051600060405180830381858888f193505050501580156107d4573d6000803e3d6000fd5b506108d9565b60008054906101000a900473ffffffffffffffffffffffffffffffffffffffff1673ffffffffffffffffffffffffffffffffffffffff166108fc606484476108229190610fba565b61082c9190611043565b9081150290604051600060405180830381858888f19350505050158015610857573d6000803e3d6000fd5b50600160009054906101000a900473ffffffffffffffffffffffffffffffffffffffff1673ffffffffffffffffffffffffffffffffffffffff166108fc606483476108a29190610fba565b6108ac9190611043565b9081150290604051600060405180830381858888f193505050501580156108d7573d6000803e3d6000fd5b505b5b5050565b6000600160009054906101000a900473ffffffffffffffffffffffffffffffffffffffff16905090565b600260009054906101000a900473ffffffffffffffffffffffffffffffffffffffff1673ffffffffffffffffffffffffffffffffffffffff163373ffffffffffffffffffffffffffffffffffffffff1614610998576040517f08c379a000000000000000000000000000000000000000000000000000000000815260040161098f90610f6b565b60405180910390fd5b8173ffffffffffffffffffffffffffffffffffffffff166108fc606483476109c09190610fba565b6109ca9190611043565b9081150290604051600060405180830381858888f193505050501580156109f5573d6000803e3d6000fd5b505050565b600160009054906101000a900473ffffffffffffffffffffffffffffffffffffffff1681565b600260009054906101000a900473ffffffffffffffffffffffffffffffffffffffff1673ffffffffffffffffffffffffffffffffffffffff163373ffffffffffffffffffffffffffffffffffffffff1614610ab0576040517f08c379a0000000000000000000000000000000000000000000000000000000008152600401610aa790610f6b565b60405180910390fd5b8060038190555050565b6000600454905090565b6000600354905090565b60008060009054906101000a900473ffffffffffffffffffffffffffffffffffffffff16905090565b600260009054906101000a900473ffffffffffffffffffffffffffffffffffffffff1673ffffffffffffffffffffffffffffffffffffffff163373ffffffffffffffffffffffffffffffffffffffff1614610b87576040517f08c379a0000000000000000000000000000000000000000000000000000000008152600401610b7e90610f6b565b60405180910390fd5b600160009054906101000a900473ffffffffffffffffffffffffffffffffffffffff1673ffffffffffffffffffffffffffffffffffffffff166108fc479081150290604051600060405180830381858888f19350505050158015610bef573d6000803e3d6000fd5b50426006819055506004600760006101000a81548160ff02191690836004811115610c1d57610c1c610c8a565b5b0217905550565b6000600554905090565b600073ffffffffffffffffffffffffffffffffffffffff82169050919050565b6000610c5982610c2e565b9050919050565b610c6981610c4e565b82525050565b6000602082019050610c846000830184610c60565b92915050565b7f4e487b7100000000000000000000000000000000000000000000000000000000600052602160045260246000fd5b60058110610cca57610cc9610c8a565b5b50565b6000819050610cdb82610cb9565b919050565b6000610ceb82610ccd565b9050919050565b610cfb81610ce0565b82525050565b6000602082019050610d166000830184610cf2565b92915050565b6000819050919050565b610d2f81610d1c565b82525050565b6000602082019050610d4a6000830184610d26565b92915050565b600080fd5b60058110610d6257600080fd5b50565b600081359050610d7481610d55565b92915050565b600060208284031215610d9057610d8f610d50565b5b6000610d9e84828501610d65565b91505092915050565b610db081610d1c565b8114610dbb57600080fd5b50565b600081359050610dcd81610da7565b92915050565b60008060408385031215610dea57610de9610d50565b5b6000610df885828601610dbe565b9250506020610e0985828601610dbe565b9150509250929050565b6000610e1e82610c2e565b9050919050565b610e2e81610e13565b82525050565b6000602082019050610e496000830184610e25565b92915050565b610e5881610c4e565b8114610e6357600080fd5b50565b600081359050610e7581610e4f565b92915050565b60008060408385031215610e9257610e91610d50565b5b6000610ea085828601610e66565b9250506020610eb185828601610dbe565b9150509250929050565b600060208284031215610ed157610ed0610d50565b5b6000610edf84828501610dbe565b91505092915050565b600082825260208201905092915050565b7f4f6e6c792074686520666163746f72792063616e20656469742074686973206360008201527f6f6e747261637400000000000000000000000000000000000000000000000000602082015250565b6000610f55602783610ee8565b9150610f6082610ef9565b604082019050919050565b60006020820190508181036000830152610f8481610f48565b9050919050565b7f4e487b7100000000000000000000000000000000000000000000000000000000600052601160045260246000fd5b6000610fc582610d1c565b9150610fd083610d1c565b9250817fffffffffffffffffffffffffffffffffffffffffffffffffffffffffffffffff048311821515161561100957611008610f8b565b5b828202905092915050565b7f4e487b7100000000000000000000000000000000000000000000000000000000600052601260045260246000fd5b600061104e82610d1c565b915061105983610d1c565b92508261106957611068611014565b5b82820490509291505056fea26469706673582212202a20f2273530028e4437d33da832da4c79ba296e6237911ca940ec4d9340167f64736f6c63430008080033",
  "immutableReferences": {},
  "source": "// SPDX-License-Identifier: MIT\r\npragma solidity ^0.8.8;\r\n\r\n// Create an enum which defines what states the contract can be in\r\nenum contractState{AWAITING_BUYER_PAYMENT,AWAITNG_SELLER_ACCEPTANCE,AWAITING_BUYER_SATISFACTION,COMPLETE,CANCELLED}\r\n\r\ncontract Escrow_Factory {\r\n\r\n    // Allows a notification to the user\r\n    event notify(string message);\r\n\r\n    // Initialise global variables\r\n    address payable public factoryOwner;\r\n    uint256 fee;\r\n    mapping(uint256 => Escrow) public escrows;\r\n\r\n    constructor() {\r\n        factoryOwner = payable(msg.sender);\r\n\r\n        // default fee in percent\r\n        fee = 4;\r\n    }\r\n\r\n    // Modifier for a function that means it can only be ran by the factoryOwner\r\n    modifier onlyOwner {\r\n        require(msg.sender == factoryOwner, 'Only the deployer of this contract can create user this function.');\r\n        _;\r\n    }\r\n\r\n    // Allows factory owner to change fee for any future contracts\r\n    function setFee(uint256 _fee) onlyOwner public {\r\n        fee = _fee;\r\n    }\r\n\r\n    // Creates a new escrow contract\r\n    function newEscrow(uint256 _id, address payable _seller, address payable _buyer) external {\r\n\r\n        // Check a contract doesnt already exist with that ID\r\n        require(!this.exists(_id), 'Sorry a contract with that ID already exist.');\r\n\r\n        // Check _seller, _buyer are not empty inputs\r\n        require(_seller != address(0) && _buyer != address(0), 'Ensure buyer and seller address are valid.');\r\n\r\n        // Create new contract\r\n        Escrow e = new Escrow(_seller,_buyer,address(this));\r\n\r\n        // Store contract in mapping\r\n        escrows[_id] = e;\r\n\r\n    }\r\n\r\n    // Reusable function for buyer to deposit into contract before confirming offer\r\n    function buyerDeposit(uint256 _id) external payable {\r\n\r\n        // Check a contract doesnt already exist with that ID\r\n        require(this.exists(_id), \"Sorry a contract with that ID doesn't exist.\");\r\n\r\n        // Ensure value deposited is greater than 0\r\n        require(msg.value > 0, 'Please ensure amount depositied is greater than 0.');\r\n\r\n        // Get contract\r\n        Escrow e = escrows[_id];\r\n\r\n        // Check msg.sender is the buyer of the contract\r\n        require(msg.sender == e.getBuyer(), 'Only the defined buyer of this contract can deposit to pot.');\r\n\r\n        // Check contract is in a state ready to accept buyer deposit\r\n        require(e.getState() == contractState.AWAITING_BUYER_PAYMENT, 'Contract cannot recieve any more funds.');\r\n\r\n        // Move funds to escrow contract\r\n        (bool success, ) = address(e).call{value:msg.value}('');\r\n        require(success, 'Error transfering funds to escrow contract.');\r\n\r\n        // Notify user\r\n        emit notify('Successfully deposited funds.');\r\n\r\n    }\r\n\r\n    // Function to confirm with buyer the amount of ether entered into the contract is correct. If\r\n    // not then the funds stored within contract is returned back to the buyer and contract is marked as complete\r\n    function buyerConfirm(uint256 _id, bool _decision) public {\r\n\r\n        // Check a contract doesnt already exist with that ID\r\n        require(this.exists(_id), \"Sorry a contract with that ID doesn't exist.\");\r\n\r\n        // Get contract\r\n        Escrow e = escrows[_id];\r\n\r\n        // Check msg.sender is the buyer of the contract\r\n        require(msg.sender == e.getBuyer(), 'Only the defined buyer of this contract can deposit to pot.');\r\n\r\n        // Require contract still be in deposit phase\r\n        require(e.getState() == contractState.AWAITING_BUYER_PAYMENT, 'Contract must be accepting funds in order to be confirmed by buyer.');\r\n\r\n        // Check confirmation\r\n        require(_decision, 'To cancel contract enter a valid positive bool input.');\r\n\r\n        // If user inputs true (yes) then set contract to state where seller can accept\r\n        // If user inputs false (no) then cancel and refund monies\r\n        if(_decision) {\r\n\r\n            // Update state of contract to allow seller to accept\r\n            e.setState(contractState.AWAITNG_SELLER_ACCEPTANCE);\r\n\r\n            // Log timestamp when value was confirmed by buyer\r\n            e.setBuyerConfirmedTimeStamp(block.timestamp);\r\n\r\n            // Notify user\r\n            emit notify('Contract is now awaiting seller acceptance.');\r\n\r\n        } else {\r\n\r\n            // Refund value of escrow contract\r\n            e.cancel();\r\n\r\n            // Notify user\r\n            emit notify('Contract has been cancelled, funds have been returned.');\r\n        }\r\n\r\n    }\r\n\r\n    // Function allows buyer to cancel contract if seller doesn't accept within allotted time\r\n    function buyerCancel(uint256 _id, bool _cancel) public {\r\n\r\n        // Check a contract doesnt already exist with that ID\r\n        require(this.exists(_id), \"Sorry a contract with that ID doesn't exist.\");\r\n\r\n        // Get contract\r\n        Escrow e = escrows[_id];\r\n\r\n        // Check msg.sender is the buyer\r\n        require(msg.sender == e.getBuyer(), 'Only the buyer of this contract can cancel offer.');\r\n\r\n        // Attempt to cancel contract\r\n        require(_cancel, 'To cancel contract enter a valid positive bool input');\r\n\r\n        // Make sure contract is in a state that can be cancelled\r\n        require(e.getState() == contractState.AWAITNG_SELLER_ACCEPTANCE || e.getState() == contractState.AWAITING_BUYER_PAYMENT, 'Contract can only be cancelled if it is still awaiting acceptance from seller.');\r\n\r\n        // If contract is waiting on buyer confirmation then cancel and return monies straight away. If waiting for seller\r\n        // to accept then check if 5 days have passed for the seller to accept before allowing buyer to cancel\r\n        if(e.getState() == contractState.AWAITING_BUYER_PAYMENT) {\r\n\r\n            // Cancel contract\r\n            e.cancel();\r\n\r\n            // Notify user\r\n            emit notify('Contract cancelled and state updated.');\r\n\r\n        } else if (e.getState() == contractState.AWAITNG_SELLER_ACCEPTANCE) {\r\n\r\n            // Make sure 5 days have passed for seller to accept\r\n            require((block.timestamp - e.getBuyerConfirmedTimeStamp()) > 5 days, 'Please allow 5 days (including weekends) for the seller to accept before cancelling.');\r\n\r\n            // Refund monies and complete contract\r\n            e.cancel();\r\n\r\n            // Notify user\r\n            emit notify('Contract cancelled and state updated.');\r\n\r\n        }\r\n\r\n    }\r\n\r\n    // This function allows only the seller to accept an offer from the buyer. If they chose to deny (cancel) the offer\r\n    // then all monies are returned back to the buyer.\r\n    function sellerAccept(uint256 _id, bool _decision) public {\r\n\r\n        // Check a contract doesnt already exist with that ID\r\n        require(this.exists(_id), \"Sorry a contract with that ID doesn't exist.\");\r\n\r\n        // Get contract\r\n        Escrow e = escrows[_id];\r\n\r\n        // Check msg.sender is the buyer\r\n        require(msg.sender == e.getSeller(), 'Only the seller of this contract can accept offer');\r\n\r\n        // Ensure contract is waiting for seller acceptance\r\n        require(e.getState() == contractState.AWAITNG_SELLER_ACCEPTANCE, 'Sorry, this contract cannot be accepted at this time.');\r\n\r\n        // If decision is true (accepted) then accept contract and send fee to factory owner, if decision is false (declined)\r\n        // then refund monies\r\n        if(_decision) {\r\n\r\n            // Accept contract\r\n            e.accept();\r\n\r\n            // fee for using escrow contract\r\n            e.sendFee(factoryOwner, fee);\r\n\r\n            // Notify user\r\n            emit notify('Contract has been accepted.');\r\n\r\n        } else if (!_decision) {\r\n\r\n            // Refund monies to buyer\r\n            e.cancel();\r\n\r\n            // Notify user\r\n            emit notify('Contract cancelled.');\r\n\r\n        }\r\n\r\n    }\r\n\r\n    // Determines if buyer is satisfied with product. Asks for confirmation of satisfaction before funds are \r\n    // then paid to the seller\r\n    function buyerSatisfied(uint256 _id, bool _decision, bool _confirm) public {\r\n\r\n        // Check a contract doesnt already exist with that ID\r\n        require(this.exists(_id), \"Sorry a contract with that ID doesn't exist.\");\r\n\r\n        // Get contract\r\n        Escrow e = escrows[_id];\r\n\r\n        // Check msg.sender is the buyer\r\n        require(msg.sender == e.getBuyer(), 'Only the buyer of this contract can cancel offer.');\r\n\r\n        // Check state is waiting for buyer satisfaction\r\n        require(e.getState() == contractState.AWAITING_BUYER_SATISFACTION, 'Contract is not currently waiting for buyer satisfaction.');\r\n\r\n        // Make sure input entered is a positive bool\r\n        require(_decision && _confirm, 'To confirm contract satisfaction please ensure both your decision and confirmation are positive bool inputs.');\r\n\r\n        // Complete contract\r\n        e.complete();\r\n\r\n    }\r\n\r\n    // Admin function for the factory owner. If any disputes occur the factory owner can distribute the contract worth\r\n    // between the buyer and seller as they see fit\r\n    function ownerDecision(uint256 _id, uint256 _percent_seller, uint256 _percent_buyer) onlyOwner external {\r\n\r\n        // Check a contract doesnt already exist with that ID\r\n        require(this.exists(_id), \"Sorry a contract with that ID doesn't exist.\");\r\n\r\n        // Get contract\r\n        Escrow e = escrows[_id];\r\n\r\n        // Check that values entered add up to 100\r\n        require(_percent_seller + _percent_buyer == 100, 'Percents must add up to 100.');\r\n\r\n        // Distribute funds accordingly\r\n        e.ownerDistribute(_percent_seller,_percent_buyer);\r\n\r\n    }\r\n\r\n    // Gets the value of a contract\r\n    function getContractValue(uint256 _id) public view returns (uint256) {\r\n        \r\n        // Check a contract doesnt already exist with that ID\r\n        require(this.exists(_id), \"Sorry a contract with that ID doesn't exist.\");\r\n\r\n        // Get contract\r\n        Escrow e = escrows[_id];\r\n\r\n        // Return balance of contract\r\n        return address(e).balance;\r\n\r\n    }\r\n\r\n    // Gets the address of an escrow contract\r\n    function getContractAddress(uint256 _id) public view returns (address) {\r\n\r\n        // Check a contract doesnt already exist with that ID\r\n        require(this.exists(_id), \"Sorry a contract with that ID doesn't exist.\");\r\n\r\n        // Get contract\r\n        Escrow e = escrows[_id];\r\n\r\n        // Return address of contract\r\n        return address(e);\r\n\r\n    }\r\n\r\n    // Checks if a contract is already allocated a unique ID\r\n    function exists(uint256 _id) public view returns (bool) {\r\n        if(address(escrows[_id]) != address(0)) {\r\n            return true;\r\n        } else {\r\n            return false;\r\n        }\r\n    }\r\n\r\n    // Gets contract state\r\n    function getContractState(uint256 _id) public view returns (contractState) {\r\n        \r\n        // Check a contract doesnt already exist with that ID\r\n        require(this.exists(_id), \"Sorry a contract with that ID doesn't exist.\");\r\n\r\n        // Get contract\r\n        Escrow e = escrows[_id];\r\n\r\n        // Return address of contract\r\n        return e.getState();\r\n    }\r\n\r\n    // Gets unix timestamp when buyer confirms deposit\r\n    function getContractBuyerConfirmedTime(uint256 _id) public view returns (uint256) {\r\n\r\n        // Check a contract doesnt already exist with that ID\r\n        require(this.exists(_id), \"Sorry a contract with that ID doesn't exist.\");\r\n\r\n        // Get contract\r\n        Escrow e = escrows[_id];\r\n\r\n        // Return buyer confirmation timestamp of contract\r\n        return e.getBuyerConfirmedTimeStamp();\r\n        \r\n    }\r\n\r\n    // Gets unix timestamp when seller accepts offer\r\n    function getContractSellerConfirmedTimeStamp(uint256 _id) public view returns (uint256) {\r\n\r\n        // Check a contract doesnt already exist with that ID\r\n        require(this.exists(_id), \"Sorry a contract with that ID doesn't exist.\");\r\n\r\n        // Get contract\r\n        Escrow e = escrows[_id];\r\n\r\n        // Return address of contract\r\n        return e.getSellerConfirmedTimeStamp();\r\n        \r\n    }\r\n\r\n    // Gets unix timestamp when buyer is satisfied with sellers product\r\n    function getContractBuyerSatisfiedTimeStamp(uint256 _id) public view returns (uint256) {\r\n\r\n        // Check a contract doesnt already exist with that ID\r\n        require(this.exists(_id), \"Sorry a contract with that ID doesn't exist.\");\r\n\r\n        // Get contract\r\n        Escrow e = escrows[_id];\r\n\r\n        // Return address of contract\r\n        return e.getBuyerSatisfiedTimeStamp();\r\n        \r\n    }\r\n\r\n    // Gets unix timestmap when contract is completed\r\n    function getContractCompletedTimeStamp(uint256 _id) public view returns (uint256) {\r\n\r\n        // Check a contract doesnt already exist with that ID\r\n        require(this.exists(_id), \"Sorry a contract with that ID doesn't exist.\");\r\n\r\n        // Get contract\r\n        Escrow e = escrows[_id];\r\n\r\n        // Return address of contract\r\n        return e.getCompletedTimeStamp();\r\n        \r\n    }\r\n\r\n}\r\n\r\ncontract Escrow {\r\n\r\n    address payable public seller;\r\n    address payable public buyer;\r\n    address factory;\r\n\r\n    uint256 buyerConfirmedTimeStamp;\r\n    uint256 sellerConfirmedTimeStamp;\r\n    uint256 buyerSatisfiedTimeStamp;\r\n    uint256 completedTimeStamp;\r\n\r\n    contractState state;\r\n\r\n    modifier onlyFactory {\r\n        require(msg.sender == factory, 'Only the factory can edit this contract');\r\n        _;\r\n    }\r\n\r\n    constructor(address payable _seller, address payable _buyer, address _factory) {\r\n        seller = _seller;\r\n        buyer = _buyer;\r\n        factory = _factory;\r\n\r\n        state = contractState.AWAITING_BUYER_PAYMENT;\r\n    }\r\n\r\n    function getBuyer() public view returns (address) {\r\n        return buyer;\r\n    }\r\n\r\n    function getSeller() public view returns (address) {\r\n        return seller;\r\n    }\r\n\r\n    function getState() public view returns (contractState) {\r\n        return state;\r\n    }\r\n\r\n    function setState(contractState _state) onlyFactory public {\r\n        state = _state;\r\n    }\r\n\r\n    function setBuyerConfirmedTimeStamp(uint256 _time) onlyFactory public {\r\n        buyerConfirmedTimeStamp = _time;\r\n    }\r\n\r\n    function getBuyerConfirmedTimeStamp() public view returns (uint256) {\r\n        return buyerConfirmedTimeStamp;\r\n    }\r\n\r\n    function getSellerConfirmedTimeStamp() public view returns (uint256) {\r\n        return sellerConfirmedTimeStamp;\r\n    }\r\n\r\n    function getBuyerSatisfiedTimeStamp() public view returns (uint256) {\r\n        return buyerSatisfiedTimeStamp;\r\n    }\r\n\r\n    function getCompletedTimeStamp() public view returns (uint256) {\r\n        return completedTimeStamp;\r\n    }\r\n\r\n    fallback() external payable {}\r\n\r\n    function accept() onlyFactory public {\r\n\r\n        state = contractState.AWAITING_BUYER_SATISFACTION;\r\n\r\n        sellerConfirmedTimeStamp = block.timestamp;\r\n\r\n    }\r\n\r\n    function cancel() onlyFactory external {\r\n\r\n        buyer.transfer(address(this).balance);\r\n\r\n        completedTimeStamp = block.timestamp;\r\n\r\n        state  = contractState.CANCELLED;\r\n    }\r\n\r\n    function complete() onlyFactory external {\r\n\r\n        seller.transfer(address(this).balance);\r\n\r\n        buyerSatisfiedTimeStamp = block.timestamp;\r\n        completedTimeStamp = block.timestamp;\r\n\r\n        state = contractState.COMPLETE;\r\n\r\n    }\r\n\r\n    function sendFee(address payable _owner, uint256 _fee) onlyFactory external {\r\n\r\n        _owner.transfer((address(this).balance) * _fee/100);\r\n\r\n    }\r\n\r\n    function ownerDistribute(uint256 _percent_seller, uint256 _percent_buyer) onlyFactory external {\r\n\r\n        if(_percent_seller == 0) {\r\n            buyer.transfer(address(this).balance);\r\n        } else if (_percent_buyer == 0) {\r\n            seller.transfer(address(this).balance);\r\n        } else {\r\n            seller.transfer((address(this).balance) * _percent_seller/100);\r\n            buyer.transfer((address(this).balance) * _percent_buyer/100);\r\n        }\r\n\r\n    }\r\n\r\n}\r\n\r\n// Author: Etienne Cellier-Clarke, add me on LinkedIn. Cheers.",
  "sourcePath": "F:\\contractFactory\\contracts\\Escrow_Factory.sol",
  "compiler": {
    "name": "solc",
    "version": "0.8.8+commit.dddeac2f.Emscripten.clang"
  },
  "schemaVersion": "3.4.3",
  "updatedAt": "2021-09-29T14:08:24.001Z",
  "devdoc": {
    "kind": "dev",
    "methods": {},
    "version": 1
  },
  "userdoc": {
    "kind": "user",
    "methods": {},
    "version": 1
  }
}