{
  "contractName": "Escrow_Factory",
  "abi": [
    {
      "inputs": [],
      "stateMutability": "nonpayable",
      "type": "constructor"
    },
    {
      "anonymous": false,
      "inputs": [
        {
          "indexed": false,
          "internalType": "string",
          "name": "message",
          "type": "string"
        }
      ],
      "name": "notify",
      "type": "event"
    },
    {
      "inputs": [
        {
          "internalType": "uint256",
          "name": "",
          "type": "uint256"
        }
      ],
      "name": "escrows",
      "outputs": [
        {
          "internalType": "contract Escrow",
          "name": "",
          "type": "address"
        }
      ],
      "stateMutability": "view",
      "type": "function",
      "constant": true
    },
    {
      "inputs": [],
      "name": "factoryOwner",
      "outputs": [
        {
          "internalType": "address payable",
          "name": "",
          "type": "address"
        }
      ],
      "stateMutability": "view",
      "type": "function",
      "constant": true
    },
    {
      "inputs": [
        {
          "internalType": "uint256",
          "name": "_fee",
          "type": "uint256"
        }
      ],
      "name": "setFee",
      "outputs": [],
      "stateMutability": "nonpayable",
      "type": "function"
    },
    {
      "inputs": [
        {
          "internalType": "uint256",
          "name": "_id",
          "type": "uint256"
        },
        {
          "internalType": "address payable",
          "name": "_seller",
          "type": "address"
        },
        {
          "internalType": "address payable",
          "name": "_buyer",
          "type": "address"
        }
      ],
      "name": "newEscrow",
      "outputs": [],
      "stateMutability": "nonpayable",
      "type": "function"
    },
    {
      "inputs": [
        {
          "internalType": "uint256",
          "name": "_id",
          "type": "uint256"
        }
      ],
      "name": "buyerDeposit",
      "outputs": [],
      "stateMutability": "payable",
      "type": "function",
      "payable": true
    },
    {
      "inputs": [
        {
          "internalType": "uint256",
          "name": "_id",
          "type": "uint256"
        },
        {
          "internalType": "bool",
          "name": "_decision",
          "type": "bool"
        }
      ],
      "name": "buyerConfirm",
      "outputs": [],
      "stateMutability": "nonpayable",
      "type": "function"
    },
    {
      "inputs": [
        {
          "internalType": "uint256",
          "name": "_id",
          "type": "uint256"
        },
        {
          "internalType": "bool",
          "name": "_cancel",
          "type": "bool"
        }
      ],
      "name": "buyerCancel",
      "outputs": [],
      "stateMutability": "nonpayable",
      "type": "function"
    },
    {
      "inputs": [
        {
          "internalType": "uint256",
          "name": "_id",
          "type": "uint256"
        },
        {
          "internalType": "bool",
          "name": "_decision",
          "type": "bool"
        }
      ],
      "name": "sellerAccept",
      "outputs": [],
      "stateMutability": "nonpayable",
      "type": "function"
    },
    {
      "inputs": [
        {
          "internalType": "uint256",
          "name": "_id",
          "type": "uint256"
        },
        {
          "internalType": "bool",
          "name": "_decision",
          "type": "bool"
        },
        {
          "internalType": "bool",
          "name": "_confirm",
          "type": "bool"
        }
      ],
      "name": "buyerSatisfied",
      "outputs": [],
      "stateMutability": "nonpayable",
      "type": "function"
    },
    {
      "inputs": [
        {
          "internalType": "uint256",
          "name": "_id",
          "type": "uint256"
        },
        {
          "internalType": "uint256",
          "name": "_percent_seller",
          "type": "uint256"
        },
        {
          "internalType": "uint256",
          "name": "_percent_buyer",
          "type": "uint256"
        }
      ],
      "name": "ownerDecision",
      "outputs": [],
      "stateMutability": "nonpayable",
      "type": "function"
    },
    {
      "inputs": [
        {
          "internalType": "uint256",
          "name": "_id",
          "type": "uint256"
        }
      ],
      "name": "getContractValue",
      "outputs": [
        {
          "internalType": "uint256",
          "name": "",
          "type": "uint256"
        }
      ],
      "stateMutability": "view",
      "type": "function",
      "constant": true
    },
    {
      "inputs": [
        {
          "internalType": "uint256",
          "name": "_id",
          "type": "uint256"
        }
      ],
      "name": "getContractAddress",
      "outputs": [
        {
          "internalType": "address",
          "name": "",
          "type": "address"
        }
      ],
      "stateMutability": "view",
      "type": "function",
      "constant": true
    },
    {
      "inputs": [
        {
          "internalType": "uint256",
          "name": "_id",
          "type": "uint256"
        }
      ],
      "name": "exists",
      "outputs": [
        {
          "internalType": "bool",
          "name": "",
          "type": "bool"
        }
      ],
      "stateMutability": "view",
      "type": "function",
      "constant": true
    },
    {
      "inputs": [
        {
          "internalType": "uint256",
          "name": "_id",
          "type": "uint256"
        }
      ],
      "name": "getContractState",
      "outputs": [
        {
          "internalType": "enum contractState",
          "name": "",
          "type": "uint8"
        }
      ],
      "stateMutability": "view",
      "type": "function",
      "constant": true
    },
    {
      "inputs": [
        {
          "internalType": "uint256",
          "name": "_id",
          "type": "uint256"
        }
      ],
      "name": "getContractBuyerConfirmedTime",
      "outputs": [
        {
          "internalType": "uint256",
          "name": "",
          "type": "uint256"
        }
      ],
      "stateMutability": "view",
      "type": "function",
      "constant": true
    },
    {
      "inputs": [
        {
          "internalType": "uint256",
          "name": "_id",
          "type": "uint256"
        }
      ],
      "name": "getContractSellerConfirmedTimeStamp",
      "outputs": [
        {
          "internalType": "uint256",
          "name": "",
          "type": "uint256"
        }
      ],
      "stateMutability": "view",
      "type": "function",
      "constant": true
    },
    {
      "inputs": [
        {
          "internalType": "uint256",
          "name": "_id",
          "type": "uint256"
        }
      ],
      "name": "getContractBuyerSatisfiedTimeStamp",
      "outputs": [
        {
          "internalType": "uint256",
          "name": "",
          "type": "uint256"
        }
      ],
      "stateMutability": "view",
      "type": "function",
      "constant": true
    },
    {
      "inputs": [
        {
          "internalType": "uint256",
          "name": "_id",
          "type": "uint256"
        }
      ],
      "name": "getContractCompletedTimeStamp",
      "outputs": [
        {
          "internalType": "uint256",
          "name": "",
          "type": "uint256"
        }
      ],
      "stateMutability": "view",
      "type": "function",
      "constant": true
    }
  ],
  "bytecode": "0x608060405234801561001057600080fd5b50336000806101000a81548173ffffffffffffffffffffffffffffffffffffffff021916908373ffffffffffffffffffffffffffffffffffffffff1602179055506004600181905550615809806100686000396000f3fe608060405260043610620001225760003560e01c8063664d394711620000a3578063976d9d83116200006d578063976d9d83146200040b578063aefa7d981462000439578063d4fc2e20146200047d578063d76e7d4414620004c1578063fca98be914620004ef5762000122565b8063664d3947146200034b57806369fe0e2d14620003795780636deba5f314620003a757806382c496fa14620003c75762000122565b80633914b54211620000f15780633914b54214620002215780634273601c14620002655780634f558e791462000295578063545f5ebe14620002d957806361cf293c146200031d5762000122565b8063012f52ee146200012757806319b488ed146200016b57806324aff2b814620001995780632fcc445d14620001dd575b600080fd5b3480156200013457600080fd5b506200015360048036038101906200014d919062002e61565b6200051d565b60405162000162919062002f1e565b60405180910390f35b3480156200017857600080fd5b5062000197600480360381019062000191919062002f78565b62000550565b005b348015620001a657600080fd5b50620001c56004803603810190620001bf919062002e61565b62000cb5565b604051620001d4919062002fd0565b60405180910390f35b348015620001ea57600080fd5b5062000209600480360381019062000203919062002e61565b62000de0565b60405162000218919062002fd0565b60405180910390f35b3480156200022e57600080fd5b506200024d600480360381019062000247919062002e61565b62000f75565b6040516200025c91906200306d565b60405180910390f35b3480156200027257600080fd5b506200027d6200110a565b6040516200028c9190620030af565b60405180910390f35b348015620002a257600080fd5b50620002c16004803603810190620002bb919062002e61565b6200112e565b604051620002d09190620030dd565b60405180910390f35b348015620002e657600080fd5b50620003056004803603810190620002ff919062002e61565b620011ab565b60405162000314919062002fd0565b60405180910390f35b3480156200032a57600080fd5b506200034960048036038101906200034391906200312b565b62001340565b005b3480156200035857600080fd5b5062000377600480360381019062000371919062003187565b62001558565b005b3480156200038657600080fd5b50620003a560048036038101906200039f919062002e61565b620017bc565b005b620003c56004803603810190620003bf919062002e61565b62001857565b005b348015620003d457600080fd5b50620003f36004803603810190620003ed919062002e61565b62001c78565b60405162000402919062002fd0565b60405180910390f35b3480156200041857600080fd5b5062000437600480360381019062000431919062002f78565b62001e0d565b005b3480156200044657600080fd5b506200046560048036038101906200045f919062002e61565b620022fe565b60405162000474919062003208565b60405180910390f35b3480156200048a57600080fd5b50620004a96004803603810190620004a3919062002e61565b62002412565b604051620004b8919062002fd0565b60405180910390f35b348015620004ce57600080fd5b50620004ed6004803603810190620004e7919062003225565b620025a7565b005b348015620004fc57600080fd5b506200051b600480360381019062000515919062002f78565b62002948565b005b60026020528060005260406000206000915054906101000a900473ffffffffffffffffffffffffffffffffffffffff1681565b3073ffffffffffffffffffffffffffffffffffffffff16634f558e79836040518263ffffffff1660e01b81526004016200058b919062002fd0565b60206040518083038186803b158015620005a457600080fd5b505afa158015620005b9573d6000803e3d6000fd5b505050506040513d601f19601f82011682018060405250810190620005df919062003298565b62000621576040517f08c379a0000000000000000000000000000000000000000000000000000000008152600401620006189062003351565b60405180910390fd5b60006002600084815260200190815260200160002060009054906101000a900473ffffffffffffffffffffffffffffffffffffffff1690508073ffffffffffffffffffffffffffffffffffffffff1663603daf9a6040518163ffffffff1660e01b815260040160206040518083038186803b158015620006a057600080fd5b505afa158015620006b5573d6000803e3d6000fd5b505050506040513d601f19601f82011682018060405250810190620006db9190620033a4565b73ffffffffffffffffffffffffffffffffffffffff163373ffffffffffffffffffffffffffffffffffffffff16146200074b576040517f08c379a000000000000000000000000000000000000000000000000000000000815260040162000742906200344c565b60405180910390fd5b816200078e576040517f08c379a00000000000000000000000000000000000000000000000000000000081526004016200078590620034e4565b60405180910390fd5b60016004811115620007a557620007a462002fed565b5b8173ffffffffffffffffffffffffffffffffffffffff16631865c57d6040518163ffffffff1660e01b815260040160206040518083038186803b158015620007ec57600080fd5b505afa15801562000801573d6000803e3d6000fd5b505050506040513d601f19601f820116820180604052508101906200082791906200352e565b60048111156200083c576200083b62002fed565b5b1480620008f45750600060048111156200085b576200085a62002fed565b5b8173ffffffffffffffffffffffffffffffffffffffff16631865c57d6040518163ffffffff1660e01b815260040160206040518083038186803b158015620008a257600080fd5b505afa158015620008b7573d6000803e3d6000fd5b505050506040513d601f19601f82011682018060405250810190620008dd91906200352e565b6004811115620008f257620008f162002fed565b5b145b62000936576040517f08c379a00000000000000000000000000000000000000000000000000000000081526004016200092d90620035fc565b60405180910390fd5b600060048111156200094d576200094c62002fed565b5b8173ffffffffffffffffffffffffffffffffffffffff16631865c57d6040518163ffffffff1660e01b815260040160206040518083038186803b1580156200099457600080fd5b505afa158015620009a9573d6000803e3d6000fd5b505050506040513d601f19601f82011682018060405250810190620009cf91906200352e565b6004811115620009e457620009e362002fed565b5b141562000a8a578073ffffffffffffffffffffffffffffffffffffffff1663ea8a1af06040518163ffffffff1660e01b8152600401600060405180830381600087803b15801562000a3457600080fd5b505af115801562000a49573d6000803e3d6000fd5b505050507fa396f8d98c67c164560cb969bf42c7fd20318f6a13d8a83e7a589a61fb1214b660405162000a7c9062003694565b60405180910390a162000cb0565b6001600481111562000aa15762000aa062002fed565b5b8173ffffffffffffffffffffffffffffffffffffffff16631865c57d6040518163ffffffff1660e01b815260040160206040518083038186803b15801562000ae857600080fd5b505afa15801562000afd573d6000803e3d6000fd5b505050506040513d601f19601f8201168201806040525081019062000b2391906200352e565b600481111562000b385762000b3762002fed565b5b141562000caf57620697808173ffffffffffffffffffffffffffffffffffffffff1663d1ce13ce6040518163ffffffff1660e01b815260040160206040518083038186803b15801562000b8a57600080fd5b505afa15801562000b9f573d6000803e3d6000fd5b505050506040513d601f19601f8201168201806040525081019062000bc59190620036cd565b4262000bd291906200372e565b1162000c15576040517f08c379a000000000000000000000000000000000000000000000000000000000815260040162000c0c9062003805565b60405180910390fd5b8073ffffffffffffffffffffffffffffffffffffffff1663ea8a1af06040518163ffffffff1660e01b8152600401600060405180830381600087803b15801562000c5e57600080fd5b505af115801562000c73573d6000803e3d6000fd5b505050507fa396f8d98c67c164560cb969bf42c7fd20318f6a13d8a83e7a589a61fb1214b660405162000ca69062003694565b60405180910390a15b5b505050565b60003073ffffffffffffffffffffffffffffffffffffffff16634f558e79836040518263ffffffff1660e01b815260040162000cf2919062002fd0565b60206040518083038186803b15801562000d0b57600080fd5b505afa15801562000d20573d6000803e3d6000fd5b505050506040513d601f19601f8201168201806040525081019062000d46919062003298565b62000d88576040517f08c379a000000000000000000000000000000000000000000000000000000000815260040162000d7f9062003351565b60405180910390fd5b60006002600084815260200190815260200160002060009054906101000a900473ffffffffffffffffffffffffffffffffffffffff1690508073ffffffffffffffffffffffffffffffffffffffff1631915050919050565b60003073ffffffffffffffffffffffffffffffffffffffff16634f558e79836040518263ffffffff1660e01b815260040162000e1d919062002fd0565b60206040518083038186803b15801562000e3657600080fd5b505afa15801562000e4b573d6000803e3d6000fd5b505050506040513d601f19601f8201168201806040525081019062000e71919062003298565b62000eb3576040517f08c379a000000000000000000000000000000000000000000000000000000000815260040162000eaa9062003351565b60405180910390fd5b60006002600084815260200190815260200160002060009054906101000a900473ffffffffffffffffffffffffffffffffffffffff1690508073ffffffffffffffffffffffffffffffffffffffff166352fa26436040518163ffffffff1660e01b815260040160206040518083038186803b15801562000f3257600080fd5b505afa15801562000f47573d6000803e3d6000fd5b505050506040513d601f19601f8201168201806040525081019062000f6d9190620036cd565b915050919050565b60003073ffffffffffffffffffffffffffffffffffffffff16634f558e79836040518263ffffffff1660e01b815260040162000fb2919062002fd0565b60206040518083038186803b15801562000fcb57600080fd5b505afa15801562000fe0573d6000803e3d6000fd5b505050506040513d601f19601f8201168201806040525081019062001006919062003298565b62001048576040517f08c379a00000000000000000000000000000000000000000000000000000000081526004016200103f9062003351565b60405180910390fd5b60006002600084815260200190815260200160002060009054906101000a900473ffffffffffffffffffffffffffffffffffffffff1690508073ffffffffffffffffffffffffffffffffffffffff16631865c57d6040518163ffffffff1660e01b815260040160206040518083038186803b158015620010c757600080fd5b505afa158015620010dc573d6000803e3d6000fd5b505050506040513d601f19601f820116820180604052508101906200110291906200352e565b915050919050565b60008054906101000a900473ffffffffffffffffffffffffffffffffffffffff1681565b60008073ffffffffffffffffffffffffffffffffffffffff166002600084815260200190815260200160002060009054906101000a900473ffffffffffffffffffffffffffffffffffffffff1673ffffffffffffffffffffffffffffffffffffffff1614620011a15760019050620011a6565b600090505b919050565b60003073ffffffffffffffffffffffffffffffffffffffff16634f558e79836040518263ffffffff1660e01b8152600401620011e8919062002fd0565b60206040518083038186803b1580156200120157600080fd5b505afa15801562001216573d6000803e3d6000fd5b505050506040513d601f19601f820116820180604052508101906200123c919062003298565b6200127e576040517f08c379a0000000000000000000000000000000000000000000000000000000008152600401620012759062003351565b60405180910390fd5b60006002600084815260200190815260200160002060009054906101000a900473ffffffffffffffffffffffffffffffffffffffff1690508073ffffffffffffffffffffffffffffffffffffffff1663d1ce13ce6040518163ffffffff1660e01b815260040160206040518083038186803b158015620012fd57600080fd5b505afa15801562001312573d6000803e3d6000fd5b505050506040513d601f19601f82011682018060405250810190620013389190620036cd565b915050919050565b3073ffffffffffffffffffffffffffffffffffffffff16634f558e79846040518263ffffffff1660e01b81526004016200137b919062002fd0565b60206040518083038186803b1580156200139457600080fd5b505afa158015620013a9573d6000803e3d6000fd5b505050506040513d601f19601f82011682018060405250810190620013cf919062003298565b1562001412576040517f08c379a000000000000000000000000000000000000000000000000000000000815260040162001409906200389d565b60405180910390fd5b600073ffffffffffffffffffffffffffffffffffffffff168273ffffffffffffffffffffffffffffffffffffffff16141580156200147d5750600073ffffffffffffffffffffffffffffffffffffffff168173ffffffffffffffffffffffffffffffffffffffff1614155b620014bf576040517f08c379a0000000000000000000000000000000000000000000000000000000008152600401620014b69062003935565b60405180910390fd5b6000828230604051620014d29062002e13565b620014e09392919062003957565b604051809103906000f080158015620014fd573d6000803e3d6000fd5b509050806002600086815260200190815260200160002060006101000a81548173ffffffffffffffffffffffffffffffffffffffff021916908373ffffffffffffffffffffffffffffffffffffffff16021790555050505050565b60008054906101000a900473ffffffffffffffffffffffffffffffffffffffff1673ffffffffffffffffffffffffffffffffffffffff163373ffffffffffffffffffffffffffffffffffffffff1614620015e9576040517f08c379a0000000000000000000000000000000000000000000000000000000008152600401620015e09062003a30565b60405180910390fd5b3073ffffffffffffffffffffffffffffffffffffffff16634f558e79846040518263ffffffff1660e01b815260040162001624919062002fd0565b60206040518083038186803b1580156200163d57600080fd5b505afa15801562001652573d6000803e3d6000fd5b505050506040513d601f19601f8201168201806040525081019062001678919062003298565b620016ba576040517f08c379a0000000000000000000000000000000000000000000000000000000008152600401620016b19062003351565b60405180910390fd5b60006002600085815260200190815260200160002060009054906101000a900473ffffffffffffffffffffffffffffffffffffffff1690506064828462001702919062003a52565b1462001745576040517f08c379a00000000000000000000000000000000000000000000000000000000081526004016200173c9062003aff565b60405180910390fd5b8073ffffffffffffffffffffffffffffffffffffffff16635b99b6c284846040518363ffffffff1660e01b81526004016200178292919062003b21565b600060405180830381600087803b1580156200179d57600080fd5b505af1158015620017b2573d6000803e3d6000fd5b5050505050505050565b60008054906101000a900473ffffffffffffffffffffffffffffffffffffffff1673ffffffffffffffffffffffffffffffffffffffff163373ffffffffffffffffffffffffffffffffffffffff16146200184d576040517f08c379a0000000000000000000000000000000000000000000000000000000008152600401620018449062003a30565b60405180910390fd5b8060018190555050565b3073ffffffffffffffffffffffffffffffffffffffff16634f558e79826040518263ffffffff1660e01b815260040162001892919062002fd0565b60206040518083038186803b158015620018ab57600080fd5b505afa158015620018c0573d6000803e3d6000fd5b505050506040513d601f19601f82011682018060405250810190620018e6919062003298565b62001928576040517f08c379a00000000000000000000000000000000000000000000000000000000081526004016200191f9062003351565b60405180910390fd5b600034116200196e576040517f08c379a0000000000000000000000000000000000000000000000000000000008152600401620019659062003bc4565b60405180910390fd5b60006002600083815260200190815260200160002060009054906101000a900473ffffffffffffffffffffffffffffffffffffffff1690508073ffffffffffffffffffffffffffffffffffffffff1663603daf9a6040518163ffffffff1660e01b815260040160206040518083038186803b158015620019ed57600080fd5b505afa15801562001a02573d6000803e3d6000fd5b505050506040513d601f19601f8201168201806040525081019062001a289190620033a4565b73ffffffffffffffffffffffffffffffffffffffff163373ffffffffffffffffffffffffffffffffffffffff161462001a98576040517f08c379a000000000000000000000000000000000000000000000000000000000815260040162001a8f9062003c5c565b60405180910390fd5b6000600481111562001aaf5762001aae62002fed565b5b8173ffffffffffffffffffffffffffffffffffffffff16631865c57d6040518163ffffffff1660e01b815260040160206040518083038186803b15801562001af657600080fd5b505afa15801562001b0b573d6000803e3d6000fd5b505050506040513d601f19601f8201168201806040525081019062001b3191906200352e565b600481111562001b465762001b4562002fed565b5b1462001b89576040517f08c379a000000000000000000000000000000000000000000000000000000000815260040162001b809062003cf4565b60405180910390fd5b60008173ffffffffffffffffffffffffffffffffffffffff163460405162001bb19062003d4b565b60006040518083038185875af1925050503d806000811462001bf0576040519150601f19603f3d011682016040523d82523d6000602084013e62001bf5565b606091505b505090508062001c3c576040517f08c379a000000000000000000000000000000000000000000000000000000000815260040162001c339062003dd8565b60405180910390fd5b7fa396f8d98c67c164560cb969bf42c7fd20318f6a13d8a83e7a589a61fb1214b660405162001c6b9062003e4a565b60405180910390a1505050565b60003073ffffffffffffffffffffffffffffffffffffffff16634f558e79836040518263ffffffff1660e01b815260040162001cb5919062002fd0565b60206040518083038186803b15801562001cce57600080fd5b505afa15801562001ce3573d6000803e3d6000fd5b505050506040513d601f19601f8201168201806040525081019062001d09919062003298565b62001d4b576040517f08c379a000000000000000000000000000000000000000000000000000000000815260040162001d429062003351565b60405180910390fd5b60006002600084815260200190815260200160002060009054906101000a900473ffffffffffffffffffffffffffffffffffffffff1690508073ffffffffffffffffffffffffffffffffffffffff1663ec2bc6ef6040518163ffffffff1660e01b815260040160206040518083038186803b15801562001dca57600080fd5b505afa15801562001ddf573d6000803e3d6000fd5b505050506040513d601f19601f8201168201806040525081019062001e059190620036cd565b915050919050565b3073ffffffffffffffffffffffffffffffffffffffff16634f558e79836040518263ffffffff1660e01b815260040162001e48919062002fd0565b60206040518083038186803b15801562001e6157600080fd5b505afa15801562001e76573d6000803e3d6000fd5b505050506040513d601f19601f8201168201806040525081019062001e9c919062003298565b62001ede576040517f08c379a000000000000000000000000000000000000000000000000000000000815260040162001ed59062003351565b60405180910390fd5b60006002600084815260200190815260200160002060009054906101000a900473ffffffffffffffffffffffffffffffffffffffff1690508073ffffffffffffffffffffffffffffffffffffffff1663603daf9a6040518163ffffffff1660e01b815260040160206040518083038186803b15801562001f5d57600080fd5b505afa15801562001f72573d6000803e3d6000fd5b505050506040513d601f19601f8201168201806040525081019062001f989190620033a4565b73ffffffffffffffffffffffffffffffffffffffff163373ffffffffffffffffffffffffffffffffffffffff161462002008576040517f08c379a000000000000000000000000000000000000000000000000000000000815260040162001fff9062003c5c565b60405180910390fd5b600060048111156200201f576200201e62002fed565b5b8173ffffffffffffffffffffffffffffffffffffffff16631865c57d6040518163ffffffff1660e01b815260040160206040518083038186803b1580156200206657600080fd5b505afa1580156200207b573d6000803e3d6000fd5b505050506040513d601f19601f82011682018060405250810190620020a191906200352e565b6004811115620020b657620020b562002fed565b5b14620020f9576040517f08c379a0000000000000000000000000000000000000000000000000000000008152600401620020f09062003f08565b60405180910390fd5b816200213c576040517f08c379a0000000000000000000000000000000000000000000000000000000008152600401620021339062003fa0565b60405180910390fd5b81156200225f578073ffffffffffffffffffffffffffffffffffffffff166356de96db60016040518263ffffffff1660e01b81526004016200217f91906200306d565b600060405180830381600087803b1580156200219a57600080fd5b505af1158015620021af573d6000803e3d6000fd5b505050508073ffffffffffffffffffffffffffffffffffffffff16639cb99c6e426040518263ffffffff1660e01b8152600401620021ee919062002fd0565b600060405180830381600087803b1580156200220957600080fd5b505af11580156200221e573d6000803e3d6000fd5b505050507fa396f8d98c67c164560cb969bf42c7fd20318f6a13d8a83e7a589a61fb1214b6604051620022519062004038565b60405180910390a1620022f9565b8073ffffffffffffffffffffffffffffffffffffffff1663ea8a1af06040518163ffffffff1660e01b8152600401600060405180830381600087803b158015620022a857600080fd5b505af1158015620022bd573d6000803e3d6000fd5b505050507fa396f8d98c67c164560cb969bf42c7fd20318f6a13d8a83e7a589a61fb1214b6604051620022f090620040d0565b60405180910390a15b505050565b60003073ffffffffffffffffffffffffffffffffffffffff16634f558e79836040518263ffffffff1660e01b81526004016200233b919062002fd0565b60206040518083038186803b1580156200235457600080fd5b505afa15801562002369573d6000803e3d6000fd5b505050506040513d601f19601f820116820180604052508101906200238f919062003298565b620023d1576040517f08c379a0000000000000000000000000000000000000000000000000000000008152600401620023c89062003351565b60405180910390fd5b60006002600084815260200190815260200160002060009054906101000a900473ffffffffffffffffffffffffffffffffffffffff16905080915050919050565b60003073ffffffffffffffffffffffffffffffffffffffff16634f558e79836040518263ffffffff1660e01b81526004016200244f919062002fd0565b60206040518083038186803b1580156200246857600080fd5b505afa1580156200247d573d6000803e3d6000fd5b505050506040513d601f19601f82011682018060405250810190620024a3919062003298565b620024e5576040517f08c379a0000000000000000000000000000000000000000000000000000000008152600401620024dc9062003351565b60405180910390fd5b60006002600084815260200190815260200160002060009054906101000a900473ffffffffffffffffffffffffffffffffffffffff1690508073ffffffffffffffffffffffffffffffffffffffff1663c6ff1d836040518163ffffffff1660e01b815260040160206040518083038186803b1580156200256457600080fd5b505afa15801562002579573d6000803e3d6000fd5b505050506040513d601f19601f820116820180604052508101906200259f9190620036cd565b915050919050565b3073ffffffffffffffffffffffffffffffffffffffff16634f558e79846040518263ffffffff1660e01b8152600401620025e2919062002fd0565b60206040518083038186803b158015620025fb57600080fd5b505afa15801562002610573d6000803e3d6000fd5b505050506040513d601f19601f8201168201806040525081019062002636919062003298565b62002678576040517f08c379a00000000000000000000000000000000000000000000000000000000081526004016200266f9062003351565b60405180910390fd5b60006002600085815260200190815260200160002060009054906101000a900473ffffffffffffffffffffffffffffffffffffffff1690508073ffffffffffffffffffffffffffffffffffffffff1663603daf9a6040518163ffffffff1660e01b815260040160206040518083038186803b158015620026f757600080fd5b505afa1580156200270c573d6000803e3d6000fd5b505050506040513d601f19601f82011682018060405250810190620027329190620033a4565b73ffffffffffffffffffffffffffffffffffffffff163373ffffffffffffffffffffffffffffffffffffffff1614620027a2576040517f08c379a000000000000000000000000000000000000000000000000000000000815260040162002799906200344c565b60405180910390fd5b60026004811115620027b957620027b862002fed565b5b8173ffffffffffffffffffffffffffffffffffffffff16631865c57d6040518163ffffffff1660e01b815260040160206040518083038186803b1580156200280057600080fd5b505afa15801562002815573d6000803e3d6000fd5b505050506040513d601f19601f820116820180604052508101906200283b91906200352e565b600481111562002850576200284f62002fed565b5b1462002893576040517f08c379a00000000000000000000000000000000000000000000000000000000081526004016200288a9062004168565b60405180910390fd5b8280156200289e5750815b620028e0576040517f08c379a0000000000000000000000000000000000000000000000000000000008152600401620028d7906200424c565b60405180910390fd5b8073ffffffffffffffffffffffffffffffffffffffff1663522e11776040518163ffffffff1660e01b8152600401600060405180830381600087803b1580156200292957600080fd5b505af11580156200293e573d6000803e3d6000fd5b5050505050505050565b3073ffffffffffffffffffffffffffffffffffffffff16634f558e79836040518263ffffffff1660e01b815260040162002983919062002fd0565b60206040518083038186803b1580156200299c57600080fd5b505afa158015620029b1573d6000803e3d6000fd5b505050506040513d601f19601f82011682018060405250810190620029d7919062003298565b62002a19576040517f08c379a000000000000000000000000000000000000000000000000000000000815260040162002a109062003351565b60405180910390fd5b60006002600084815260200190815260200160002060009054906101000a900473ffffffffffffffffffffffffffffffffffffffff1690508073ffffffffffffffffffffffffffffffffffffffff1663dbd0e1b66040518163ffffffff1660e01b815260040160206040518083038186803b15801562002a9857600080fd5b505afa15801562002aad573d6000803e3d6000fd5b505050506040513d601f19601f8201168201806040525081019062002ad39190620033a4565b73ffffffffffffffffffffffffffffffffffffffff163373ffffffffffffffffffffffffffffffffffffffff161462002b43576040517f08c379a000000000000000000000000000000000000000000000000000000000815260040162002b3a90620042e4565b60405180910390fd5b6001600481111562002b5a5762002b5962002fed565b5b8173ffffffffffffffffffffffffffffffffffffffff16631865c57d6040518163ffffffff1660e01b815260040160206040518083038186803b15801562002ba157600080fd5b505afa15801562002bb6573d6000803e3d6000fd5b505050506040513d601f19601f8201168201806040525081019062002bdc91906200352e565b600481111562002bf15762002bf062002fed565b5b1462002c34576040517f08c379a000000000000000000000000000000000000000000000000000000000815260040162002c2b906200437c565b60405180910390fd5b811562002d6d578073ffffffffffffffffffffffffffffffffffffffff16632852b71c6040518163ffffffff1660e01b8152600401600060405180830381600087803b15801562002c8457600080fd5b505af115801562002c99573d6000803e3d6000fd5b505050508073ffffffffffffffffffffffffffffffffffffffff166363d70ec760008054906101000a900473ffffffffffffffffffffffffffffffffffffffff166001546040518363ffffffff1660e01b815260040162002cfc9291906200439e565b600060405180830381600087803b15801562002d1757600080fd5b505af115801562002d2c573d6000803e3d6000fd5b505050507fa396f8d98c67c164560cb969bf42c7fd20318f6a13d8a83e7a589a61fb1214b660405162002d5f906200441b565b60405180910390a162002e0e565b8162002e0d578073ffffffffffffffffffffffffffffffffffffffff1663ea8a1af06040518163ffffffff1660e01b8152600401600060405180830381600087803b15801562002dbc57600080fd5b505af115801562002dd1573d6000803e3d6000fd5b505050507fa396f8d98c67c164560cb969bf42c7fd20318f6a13d8a83e7a589a61fb1214b660405162002e04906200448d565b60405180910390a15b5b505050565b61132480620044b083390190565b600080fd5b6000819050919050565b62002e3b8162002e26565b811462002e4757600080fd5b50565b60008135905062002e5b8162002e30565b92915050565b60006020828403121562002e7a5762002e7962002e21565b5b600062002e8a8482850162002e4a565b91505092915050565b600073ffffffffffffffffffffffffffffffffffffffff82169050919050565b6000819050919050565b600062002ede62002ed862002ed28462002e93565b62002eb3565b62002e93565b9050919050565b600062002ef28262002ebd565b9050919050565b600062002f068262002ee5565b9050919050565b62002f188162002ef9565b82525050565b600060208201905062002f35600083018462002f0d565b92915050565b60008115159050919050565b62002f528162002f3b565b811462002f5e57600080fd5b50565b60008135905062002f728162002f47565b92915050565b6000806040838503121562002f925762002f9162002e21565b5b600062002fa28582860162002e4a565b925050602062002fb58582860162002f61565b9150509250929050565b62002fca8162002e26565b82525050565b600060208201905062002fe7600083018462002fbf565b92915050565b7f4e487b7100000000000000000000000000000000000000000000000000000000600052602160045260246000fd5b6005811062003030576200302f62002fed565b5b50565b600081905062003043826200301c565b919050565b6000620030558262003033565b9050919050565b620030678162003048565b82525050565b60006020820190506200308460008301846200305c565b92915050565b6000620030978262002e93565b9050919050565b620030a9816200308a565b82525050565b6000602082019050620030c660008301846200309e565b92915050565b620030d78162002f3b565b82525050565b6000602082019050620030f46000830184620030cc565b92915050565b62003105816200308a565b81146200311157600080fd5b50565b6000813590506200312581620030fa565b92915050565b60008060006060848603121562003147576200314662002e21565b5b6000620031578682870162002e4a565b93505060206200316a8682870162003114565b92505060406200317d8682870162003114565b9150509250925092565b600080600060608486031215620031a357620031a262002e21565b5b6000620031b38682870162002e4a565b9350506020620031c68682870162002e4a565b9250506040620031d98682870162002e4a565b9150509250925092565b6000620031f08262002e93565b9050919050565b6200320281620031e3565b82525050565b60006020820190506200321f6000830184620031f7565b92915050565b60008060006060848603121562003241576200324062002e21565b5b6000620032518682870162002e4a565b9350506020620032648682870162002f61565b9250506040620032778682870162002f61565b9150509250925092565b600081519050620032928162002f47565b92915050565b600060208284031215620032b157620032b062002e21565b5b6000620032c18482850162003281565b91505092915050565b600082825260208201905092915050565b7f536f727279206120636f6e74726163742077697468207468617420494420646f60008201527f65736e27742065786973742e0000000000000000000000000000000000000000602082015250565b600062003339602c83620032ca565b91506200334682620032db565b604082019050919050565b600060208201905081810360008301526200336c816200332a565b9050919050565b6200337e81620031e3565b81146200338a57600080fd5b50565b6000815190506200339e8162003373565b92915050565b600060208284031215620033bd57620033bc62002e21565b5b6000620033cd848285016200338d565b91505092915050565b7f4f6e6c7920746865206275796572206f66207468697320636f6e74726163742060008201527f63616e2063616e63656c206f666665722e000000000000000000000000000000602082015250565b600062003434603183620032ca565b91506200344182620033d6565b604082019050919050565b60006020820190508181036000830152620034678162003425565b9050919050565b7f546f2063616e63656c20636f6e747261637420656e74657220612076616c696460008201527f20706f73697469766520626f6f6c20696e707574000000000000000000000000602082015250565b6000620034cc603483620032ca565b9150620034d9826200346e565b604082019050919050565b60006020820190508181036000830152620034ff81620034bd565b9050919050565b600581106200351457600080fd5b50565b600081519050620035288162003506565b92915050565b60006020828403121562003547576200354662002e21565b5b6000620035578482850162003517565b91505092915050565b7f436f6e74726163742063616e206f6e6c792062652063616e63656c6c6564206960008201527f66206974206973207374696c6c206177616974696e6720616363657074616e6360208201527f652066726f6d2073656c6c65722e000000000000000000000000000000000000604082015250565b6000620035e4604e83620032ca565b9150620035f18262003560565b606082019050919050565b600060208201905081810360008301526200361781620035d5565b9050919050565b7f436f6e74726163742063616e63656c6c656420616e642073746174652075706460008201527f617465642e000000000000000000000000000000000000000000000000000000602082015250565b60006200367c602583620032ca565b915062003689826200361e565b604082019050919050565b60006020820190508181036000830152620036af816200366d565b9050919050565b600081519050620036c78162002e30565b92915050565b600060208284031215620036e657620036e562002e21565b5b6000620036f684828501620036b6565b91505092915050565b7f4e487b7100000000000000000000000000000000000000000000000000000000600052601160045260246000fd5b60006200373b8262002e26565b9150620037488362002e26565b9250828210156200375e576200375d620036ff565b5b828203905092915050565b7f506c6561736520616c6c6f77203520646179732028696e636c7564696e67207760008201527f65656b656e64732920666f72207468652073656c6c657220746f20616363657060208201527f74206265666f72652063616e63656c6c696e672e000000000000000000000000604082015250565b6000620037ed605483620032ca565b9150620037fa8262003769565b606082019050919050565b600060208201905081810360008301526200382081620037de565b9050919050565b7f536f727279206120636f6e74726163742077697468207468617420494420616c60008201527f72656164792065786973742e0000000000000000000000000000000000000000602082015250565b600062003885602c83620032ca565b9150620038928262003827565b604082019050919050565b60006020820190508181036000830152620038b88162003876565b9050919050565b7f456e7375726520627579657220616e642073656c6c657220616464726573732060008201527f6172652076616c69642e00000000000000000000000000000000000000000000602082015250565b60006200391d602a83620032ca565b91506200392a82620038bf565b604082019050919050565b6000602082019050818103600083015262003950816200390e565b9050919050565b60006060820190506200396e60008301866200309e565b6200397d60208301856200309e565b6200398c6040830184620031f7565b949350505050565b7f4f6e6c7920746865206465706c6f796572206f66207468697320636f6e74726160008201527f63742063616e20637265617465207573657220746869732066756e6374696f6e60208201527f2e00000000000000000000000000000000000000000000000000000000000000604082015250565b600062003a18604183620032ca565b915062003a258262003994565b606082019050919050565b6000602082019050818103600083015262003a4b8162003a09565b9050919050565b600062003a5f8262002e26565b915062003a6c8362002e26565b9250827fffffffffffffffffffffffffffffffffffffffffffffffffffffffffffffffff0382111562003aa45762003aa3620036ff565b5b828201905092915050565b7f50657263656e7473206d7573742061646420757020746f203130302e00000000600082015250565b600062003ae7601c83620032ca565b915062003af48262003aaf565b602082019050919050565b6000602082019050818103600083015262003b1a8162003ad8565b9050919050565b600060408201905062003b38600083018562002fbf565b62003b47602083018462002fbf565b9392505050565b7f506c6561736520656e7375726520616d6f756e74206465706f7369746965642060008201527f69732067726561746572207468616e20302e0000000000000000000000000000602082015250565b600062003bac603283620032ca565b915062003bb98262003b4e565b604082019050919050565b6000602082019050818103600083015262003bdf8162003b9d565b9050919050565b7f4f6e6c792074686520646566696e6564206275796572206f662074686973206360008201527f6f6e74726163742063616e206465706f73697420746f20706f742e0000000000602082015250565b600062003c44603b83620032ca565b915062003c518262003be6565b604082019050919050565b6000602082019050818103600083015262003c778162003c35565b9050919050565b7f436f6e74726163742063616e6e6f74207265636965766520616e79206d6f726560008201527f2066756e64732e00000000000000000000000000000000000000000000000000602082015250565b600062003cdc602783620032ca565b915062003ce98262003c7e565b604082019050919050565b6000602082019050818103600083015262003d0f8162003ccd565b9050919050565b600081905092915050565b50565b600062003d3360008362003d16565b915062003d408262003d21565b600082019050919050565b600062003d588262003d24565b9150819050919050565b7f4572726f72207472616e73666572696e672066756e647320746f20657363726f60008201527f7720636f6e74726163742e000000000000000000000000000000000000000000602082015250565b600062003dc0602b83620032ca565b915062003dcd8262003d62565b604082019050919050565b6000602082019050818103600083015262003df38162003db1565b9050919050565b7f5375636365737366756c6c79206465706f73697465642066756e64732e000000600082015250565b600062003e32601d83620032ca565b915062003e3f8262003dfa565b602082019050919050565b6000602082019050818103600083015262003e658162003e23565b9050919050565b7f436f6e7472616374206d75737420626520616363657074696e672066756e647360008201527f20696e206f7264657220746f20626520636f6e6669726d65642062792062757960208201527f65722e0000000000000000000000000000000000000000000000000000000000604082015250565b600062003ef0604383620032ca565b915062003efd8262003e6c565b606082019050919050565b6000602082019050818103600083015262003f238162003ee1565b9050919050565b7f546f2063616e63656c20636f6e747261637420656e74657220612076616c696460008201527f20706f73697469766520626f6f6c20696e7075742e0000000000000000000000602082015250565b600062003f88603583620032ca565b915062003f958262003f2a565b604082019050919050565b6000602082019050818103600083015262003fbb8162003f79565b9050919050565b7f436f6e7472616374206973206e6f77206177616974696e672073656c6c65722060008201527f616363657074616e63652e000000000000000000000000000000000000000000602082015250565b600062004020602b83620032ca565b91506200402d8262003fc2565b604082019050919050565b60006020820190508181036000830152620040538162004011565b9050919050565b7f436f6e747261637420686173206265656e2063616e63656c6c65642c2066756e60008201527f64732068617665206265656e2072657475726e65642e00000000000000000000602082015250565b6000620040b8603683620032ca565b9150620040c5826200405a565b604082019050919050565b60006020820190508181036000830152620040eb81620040a9565b9050919050565b7f436f6e7472616374206973206e6f742063757272656e746c792077616974696e60008201527f6720666f7220627579657220736174697366616374696f6e2e00000000000000602082015250565b600062004150603983620032ca565b91506200415d82620040f2565b604082019050919050565b60006020820190508181036000830152620041838162004141565b9050919050565b7f546f20636f6e6669726d20636f6e747261637420736174697366616374696f6e60008201527f20706c6561736520656e7375726520626f746820796f7572206465636973696f60208201527f6e20616e6420636f6e6669726d6174696f6e2061726520706f7369746976652060408201527f626f6f6c20696e707574732e0000000000000000000000000000000000000000606082015250565b600062004234606c83620032ca565b915062004241826200418a565b608082019050919050565b60006020820190508181036000830152620042678162004225565b9050919050565b7f4f6e6c79207468652073656c6c6572206f66207468697320636f6e747261637460008201527f2063616e20616363657074206f66666572000000000000000000000000000000602082015250565b6000620042cc603183620032ca565b9150620042d9826200426e565b604082019050919050565b60006020820190508181036000830152620042ff81620042bd565b9050919050565b7f536f7272792c207468697320636f6e74726163742063616e6e6f74206265206160008201527f6363657074656420617420746869732074696d652e0000000000000000000000602082015250565b600062004364603583620032ca565b9150620043718262004306565b604082019050919050565b60006020820190508181036000830152620043978162004355565b9050919050565b6000604082019050620043b560008301856200309e565b620043c4602083018462002fbf565b9392505050565b7f436f6e747261637420686173206265656e2061636365707465642e0000000000600082015250565b600062004403601b83620032ca565b91506200441082620043cb565b602082019050919050565b600060208201905081810360008301526200443681620043f4565b9050919050565b7f436f6e74726163742063616e63656c6c65642e00000000000000000000000000600082015250565b600062004475601383620032ca565b915062004482826200443d565b602082019050919050565b60006020820190508181036000830152620044a88162004466565b905091905056fe60806040523480156200001157600080fd5b5060405162001324380380620013248339818101604052810190620000379190620001df565b826000806101000a81548173ffffffffffffffffffffffffffffffffffffffff021916908373ffffffffffffffffffffffffffffffffffffffff16021790555081600160006101000a81548173ffffffffffffffffffffffffffffffffffffffff021916908373ffffffffffffffffffffffffffffffffffffffff16021790555080600260006101000a81548173ffffffffffffffffffffffffffffffffffffffff021916908373ffffffffffffffffffffffffffffffffffffffff1602179055506000600760006101000a81548160ff021916908360048111156200012257620001216200023b565b5b02179055505050506200026a565b600080fd5b600073ffffffffffffffffffffffffffffffffffffffff82169050919050565b6000620001628262000135565b9050919050565b620001748162000155565b81146200018057600080fd5b50565b600081519050620001948162000169565b92915050565b6000620001a78262000135565b9050919050565b620001b9816200019a565b8114620001c557600080fd5b50565b600081519050620001d981620001ae565b92915050565b600080600060608486031215620001fb57620001fa62000130565b5b60006200020b8682870162000183565b93505060206200021e8682870162000183565b92505060406200023186828701620001c8565b9150509250925092565b7f4e487b7100000000000000000000000000000000000000000000000000000000600052602160045260246000fd5b6110aa806200027a6000396000f3fe6080604052600436106100f75760003560e01c806363d70ec71161008a578063d1ce13ce11610059578063d1ce13ce146102ce578063dbd0e1b6146102f9578063ea8a1af014610324578063ec2bc6ef1461033b576100f8565b806363d70ec7146102265780637150d8ae1461024f5780639cb99c6e1461027a578063c6ff1d83146102a3576100f8565b806352fa2643116100c657806352fa26431461017e57806356de96db146101a95780635b99b6c2146101d2578063603daf9a146101fb576100f8565b806308551a53146100fa5780631865c57d146101255780632852b71c14610150578063522e117714610167576100f8565b5b005b34801561010657600080fd5b5061010f610366565b60405161011c9190610c6f565b60405180910390f35b34801561013157600080fd5b5061013a61038a565b6040516101479190610d01565b60405180910390f35b34801561015c57600080fd5b506101656103a1565b005b34801561017357600080fd5b5061017c610465565b005b34801561018a57600080fd5b50610193610597565b6040516101a09190610d35565b60405180910390f35b3480156101b557600080fd5b506101d060048036038101906101cb9190610d7a565b6105a1565b005b3480156101de57600080fd5b506101f960048036038101906101f49190610dd3565b61065e565b005b34801561020757600080fd5b506102106108de565b60405161021d9190610e34565b60405180910390f35b34801561023257600080fd5b5061024d60048036038101906102489190610e7b565b610908565b005b34801561025b57600080fd5b506102646109fa565b6040516102719190610c6f565b60405180910390f35b34801561028657600080fd5b506102a1600480360381019061029c9190610ebb565b610a20565b005b3480156102af57600080fd5b506102b8610aba565b6040516102c59190610d35565b60405180910390f35b3480156102da57600080fd5b506102e3610ac4565b6040516102f09190610d35565b60405180910390f35b34801561030557600080fd5b5061030e610ace565b60405161031b9190610e34565b60405180910390f35b34801561033057600080fd5b50610339610af7565b005b34801561034757600080fd5b50610350610c24565b60405161035d9190610d35565b60405180910390f35b60008054906101000a900473ffffffffffffffffffffffffffffffffffffffff1681565b6000600760009054906101000a900460ff16905090565b600260009054906101000a900473ffffffffffffffffffffffffffffffffffffffff1673ffffffffffffffffffffffffffffffffffffffff163373ffffffffffffffffffffffffffffffffffffffff1614610431576040517f08c379a000000000000000000000000000000000000000000000000000000000815260040161042890610f6b565b60405180910390fd5b6002600760006101000a81548160ff0219169083600481111561045757610456610c8a565b5b021790555042600481905550565b600260009054906101000a900473ffffffffffffffffffffffffffffffffffffffff1673ffffffffffffffffffffffffffffffffffffffff163373ffffffffffffffffffffffffffffffffffffffff16146104f5576040517f08c379a00000000000000000000000000000000000000000000000000000000081526004016104ec90610f6b565b60405180910390fd5b60008054906101000a900473ffffffffffffffffffffffffffffffffffffffff1673ffffffffffffffffffffffffffffffffffffffff166108fc479081150290604051600060405180830381858888f1935050505015801561055b573d6000803e3d6000fd5b5042600581905550426006819055506003600760006101000a81548160ff021916908360048111156105905761058f610c8a565b5b0217905550565b6000600654905090565b600260009054906101000a900473ffffffffffffffffffffffffffffffffffffffff1673ffffffffffffffffffffffffffffffffffffffff163373ffffffffffffffffffffffffffffffffffffffff1614610631576040517f08c379a000000000000000000000000000000000000000000000000000000000815260040161062890610f6b565b60405180910390fd5b80600760006101000a81548160ff0219169083600481111561065657610655610c8a565b5b021790555050565b600260009054906101000a900473ffffffffffffffffffffffffffffffffffffffff1673ffffffffffffffffffffffffffffffffffffffff163373ffffffffffffffffffffffffffffffffffffffff16146106ee576040517f08c379a00000000000000000000000000000000000000000000000000000000081526004016106e590610f6b565b60405180910390fd5b600082141561076557600160009054906101000a900473ffffffffffffffffffffffffffffffffffffffff1673ffffffffffffffffffffffffffffffffffffffff166108fc479081150290604051600060405180830381858888f1935050505015801561075f573d6000803e3d6000fd5b506108da565b60008114156107da5760008054906101000a900473ffffffffffffffffffffffffffffffffffffffff1673ffffffffffffffffffffffffffffffffffffffff166108fc479081150290604051600060405180830381858888f193505050501580156107d4573d6000803e3d6000fd5b506108d9565b60008054906101000a900473ffffffffffffffffffffffffffffffffffffffff1673ffffffffffffffffffffffffffffffffffffffff166108fc606484476108229190610fba565b61082c9190611043565b9081150290604051600060405180830381858888f19350505050158015610857573d6000803e3d6000fd5b50600160009054906101000a900473ffffffffffffffffffffffffffffffffffffffff1673ffffffffffffffffffffffffffffffffffffffff166108fc606483476108a29190610fba565b6108ac9190611043565b9081150290604051600060405180830381858888f193505050501580156108d7573d6000803e3d6000fd5b505b5b5050565b6000600160009054906101000a900473ffffffffffffffffffffffffffffffffffffffff16905090565b600260009054906101000a900473ffffffffffffffffffffffffffffffffffffffff1673ffffffffffffffffffffffffffffffffffffffff163373ffffffffffffffffffffffffffffffffffffffff1614610998576040517f08c379a000000000000000000000000000000000000000000000000000000000815260040161098f90610f6b565b60405180910390fd5b8173ffffffffffffffffffffffffffffffffffffffff166108fc606483476109c09190610fba565b6109ca9190611043565b9081150290604051600060405180830381858888f193505050501580156109f5573d6000803e3d6000fd5b505050565b600160009054906101000a900473ffffffffffffffffffffffffffffffffffffffff1681565b600260009054906101000a900473ffffffffffffffffffffffffffffffffffffffff1673ffffffffffffffffffffffffffffffffffffffff163373ffffffffffffffffffffffffffffffffffffffff1614610ab0576040517f08c379a0000000000000000000000000000000000000000000000000000000008152600401610aa790610f6b565b60405180910390fd5b8060038190555050565b6000600454905090565b6000600354905090565b60008060009054906101000a900473ffffffffffffffffffffffffffffffffffffffff16905090565b600260009054906101000a900473ffffffffffffffffffffffffffffffffffffffff1673ffffffffffffffffffffffffffffffffffffffff163373ffffffffffffffffffffffffffffffffffffffff1614610b87576040517f08c379a0000000000000000000000000000000000000000000000000000000008152600401610b7e90610f6b565b60405180910390fd5b600160009054906101000a900473ffffffffffffffffffffffffffffffffffffffff1673ffffffffffffffffffffffffffffffffffffffff166108fc479081150290604051600060405180830381858888f19350505050158015610bef573d6000803e3d6000fd5b50426006819055506004600760006101000a81548160ff02191690836004811115610c1d57610c1c610c8a565b5b0217905550565b6000600554905090565b600073ffffffffffffffffffffffffffffffffffffffff82169050919050565b6000610c5982610c2e565b9050919050565b610c6981610c4e565b82525050565b6000602082019050610c846000830184610c60565b92915050565b7f4e487b7100000000000000000000000000000000000000000000000000000000600052602160045260246000fd5b60058110610cca57610cc9610c8a565b5b50565b6000819050610cdb82610cb9565b919050565b6000610ceb82610ccd565b9050919050565b610cfb81610ce0565b82525050565b6000602082019050610d166000830184610cf2565b92915050565b6000819050919050565b610d2f81610d1c565b82525050565b6000602082019050610d4a6000830184610d26565b92915050565b600080fd5b60058110610d6257600080fd5b50565b600081359050610d7481610d55565b92915050565b600060208284031215610d9057610d8f610d50565b5b6000610d9e84828501610d65565b91505092915050565b610db081610d1c565b8114610dbb57600080fd5b50565b600081359050610dcd81610da7565b92915050565b60008060408385031215610dea57610de9610d50565b5b6000610df885828601610dbe565b9250506020610e0985828601610dbe565b9150509250929050565b6000610e1e82610c2e565b9050919050565b610e2e81610e13565b82525050565b6000602082019050610e496000830184610e25565b92915050565b610e5881610c4e565b8114610e6357600080fd5b50565b600081359050610e7581610e4f565b92915050565b60008060408385031215610e9257610e91610d50565b5b6000610ea085828601610e66565b9250506020610eb185828601610dbe565b9150509250929050565b600060208284031215610ed157610ed0610d50565b5b6000610edf84828501610dbe565b91505092915050565b600082825260208201905092915050565b7f4f6e6c792074686520666163746f72792063616e20656469742074686973206360008201527f6f6e747261637400000000000000000000000000000000000000000000000000602082015250565b6000610f55602783610ee8565b9150610f6082610ef9565b604082019050919050565b60006020820190508181036000830152610f8481610f48565b9050919050565b7f4e487b7100000000000000000000000000000000000000000000000000000000600052601160045260246000fd5b6000610fc582610d1c565b9150610fd083610d1c565b9250817fffffffffffffffffffffffffffffffffffffffffffffffffffffffffffffffff048311821515161561100957611008610f8b565b5b828202905092915050565b7f4e487b7100000000000000000000000000000000000000000000000000000000600052601260045260246000fd5b600061104e82610d1c565b915061105983610d1c565b92508261106957611068611014565b5b82820490509291505056fea26469706673582212202a20f2273530028e4437d33da832da4c79ba296e6237911ca940ec4d9340167f64736f6c63430008080033a26469706673582212209701019f5c5158cfa637ca5dfc8239adeefcf530e8b1131cda4dae32510e5fe264736f6c63430008080033",
  "immutableReferences": {},
  "source": "// SPDX-License-Identifier: MIT\r\npragma solidity ^0.8.8;\r\n\r\n// Create an enum which defines what states the contract can be in\r\nenum contractState{AWAITING_BUYER_PAYMENT,AWAITNG_SELLER_ACCEPTANCE,AWAITING_BUYER_SATISFACTION,COMPLETE,CANCELLED}\r\n\r\ncontract Escrow_Factory {\r\n\r\n    // Allows a notification to the user\r\n    event notify(string message);\r\n\r\n    // Initialise global variables\r\n    address payable public factoryOwner;\r\n    uint256 fee;\r\n    mapping(uint256 => Escrow) public escrows;\r\n\r\n    constructor() {\r\n        factoryOwner = payable(msg.sender);\r\n\r\n        // default fee in percent\r\n        fee = 4;\r\n    }\r\n\r\n    // Modifier for a function that means it can only be ran by the factoryOwner\r\n    modifier onlyOwner {\r\n        require(msg.sender == factoryOwner, 'Only the deployer of this contract can create user this function.');\r\n        _;\r\n    }\r\n\r\n    // Allows factory owner to change fee for any future contracts\r\n    function setFee(uint256 _fee) onlyOwner public {\r\n        fee = _fee;\r\n    }\r\n\r\n    // Creates a new escrow contract\r\n    function newEscrow(uint256 _id, address payable _seller, address payable _buyer) external {\r\n\r\n        // Check a contract doesnt already exist with that ID\r\n        require(!this.exists(_id), 'Sorry a contract with that ID already exist.');\r\n\r\n        // Check _seller, _buyer are not empty inputs\r\n        require(_seller != address(0) && _buyer != address(0), 'Ensure buyer and seller address are valid.');\r\n\r\n        // Create new contract\r\n        Escrow e = new Escrow(_seller,_buyer,address(this));\r\n\r\n        // Store contract in mapping\r\n        escrows[_id] = e;\r\n\r\n    }\r\n\r\n    // Reusable function for buyer to deposit into contract before confirming offer\r\n    function buyerDeposit(uint256 _id) external payable {\r\n\r\n        // Check a contract doesnt already exist with that ID\r\n        require(this.exists(_id), \"Sorry a contract with that ID doesn't exist.\");\r\n\r\n        // Ensure value deposited is greater than 0\r\n        require(msg.value > 0, 'Please ensure amount depositied is greater than 0.');\r\n\r\n        // Get contract\r\n        Escrow e = escrows[_id];\r\n\r\n        // Check msg.sender is the buyer of the contract\r\n        require(msg.sender == e.getBuyer(), 'Only the defined buyer of this contract can deposit to pot.');\r\n\r\n        // Check contract is in a state ready to accept buyer deposit\r\n        require(e.getState() == contractState.AWAITING_BUYER_PAYMENT, 'Contract cannot recieve any more funds.');\r\n\r\n        // Move funds to escrow contract\r\n        (bool success, ) = address(e).call{value:msg.value}('');\r\n        require(success, 'Error transfering funds to escrow contract.');\r\n\r\n        // Notify user\r\n        emit notify('Successfully deposited funds.');\r\n\r\n    }\r\n\r\n    // Function to confirm with buyer the amount of ether entered into the contract is correct. If\r\n    // not then the funds stored within contract is returned back to the buyer and contract is marked as complete\r\n    function buyerConfirm(uint256 _id, bool _decision) public {\r\n\r\n        // Check a contract doesnt already exist with that ID\r\n        require(this.exists(_id), \"Sorry a contract with that ID doesn't exist.\");\r\n\r\n        // Get contract\r\n        Escrow e = escrows[_id];\r\n\r\n        // Check msg.sender is the buyer of the contract\r\n        require(msg.sender == e.getBuyer(), 'Only the defined buyer of this contract can deposit to pot.');\r\n\r\n        // Require contract still be in deposit phase\r\n        require(e.getState() == contractState.AWAITING_BUYER_PAYMENT, 'Contract must be accepting funds in order to be confirmed by buyer.');\r\n\r\n        // Check confirmation\r\n        require(_decision, 'To cancel contract enter a valid positive bool input.');\r\n\r\n        // If user inputs true (yes) then set contract to state where seller can accept\r\n        // If user inputs false (no) then cancel and refund monies\r\n        if(_decision) {\r\n\r\n            // Update state of contract to allow seller to accept\r\n            e.setState(contractState.AWAITNG_SELLER_ACCEPTANCE);\r\n\r\n            // Log timestamp when value was confirmed by buyer\r\n            e.setBuyerConfirmedTimeStamp(block.timestamp);\r\n\r\n            // Notify user\r\n            emit notify('Contract is now awaiting seller acceptance.');\r\n\r\n        } else {\r\n\r\n            // Refund value of escrow contract\r\n            e.cancel();\r\n\r\n            // Notify user\r\n            emit notify('Contract has been cancelled, funds have been returned.');\r\n        }\r\n\r\n    }\r\n\r\n    // Function allows buyer to cancel contract if seller doesn't accept within allotted time\r\n    function buyerCancel(uint256 _id, bool _cancel) public {\r\n\r\n        // Check a contract doesnt already exist with that ID\r\n        require(this.exists(_id), \"Sorry a contract with that ID doesn't exist.\");\r\n\r\n        // Get contract\r\n        Escrow e = escrows[_id];\r\n\r\n        // Check msg.sender is the buyer\r\n        require(msg.sender == e.getBuyer(), 'Only the buyer of this contract can cancel offer.');\r\n\r\n        // Attempt to cancel contract\r\n        require(_cancel, 'To cancel contract enter a valid positive bool input');\r\n\r\n        // Make sure contract is in a state that can be cancelled\r\n        require(e.getState() == contractState.AWAITNG_SELLER_ACCEPTANCE || e.getState() == contractState.AWAITING_BUYER_PAYMENT, 'Contract can only be cancelled if it is still awaiting acceptance from seller.');\r\n\r\n        // If contract is waiting on buyer confirmation then cancel and return monies straight away. If waiting for seller\r\n        // to accept then check if 5 days have passed for the seller to accept before allowing buyer to cancel\r\n        if(e.getState() == contractState.AWAITING_BUYER_PAYMENT) {\r\n\r\n            // Cancel contract\r\n            e.cancel();\r\n\r\n            // Notify user\r\n            emit notify('Contract cancelled and state updated.');\r\n\r\n        } else if (e.getState() == contractState.AWAITNG_SELLER_ACCEPTANCE) {\r\n\r\n            // Make sure 5 days have passed for seller to accept\r\n            require((block.timestamp - e.getBuyerConfirmedTimeStamp()) > 5 days, 'Please allow 5 days (including weekends) for the seller to accept before cancelling.');\r\n\r\n            // Refund monies and complete contract\r\n            e.cancel();\r\n\r\n            // Notify user\r\n            emit notify('Contract cancelled and state updated.');\r\n\r\n        }\r\n\r\n    }\r\n\r\n    // This function allows only the seller to accept an offer from the buyer. If they chose to deny (cancel) the offer\r\n    // then all monies are returned back to the buyer.\r\n    function sellerAccept(uint256 _id, bool _decision) public {\r\n\r\n        // Check a contract doesnt already exist with that ID\r\n        require(this.exists(_id), \"Sorry a contract with that ID doesn't exist.\");\r\n\r\n        // Get contract\r\n        Escrow e = escrows[_id];\r\n\r\n        // Check msg.sender is the buyer\r\n        require(msg.sender == e.getSeller(), 'Only the seller of this contract can accept offer');\r\n\r\n        // Ensure contract is waiting for seller acceptance\r\n        require(e.getState() == contractState.AWAITNG_SELLER_ACCEPTANCE, 'Sorry, this contract cannot be accepted at this time.');\r\n\r\n        // If decision is true (accepted) then accept contract and send fee to factory owner, if decision is false (declined)\r\n        // then refund monies\r\n        if(_decision) {\r\n\r\n            // Accept contract\r\n            e.accept();\r\n\r\n            // fee for using escrow contract\r\n            e.sendFee(factoryOwner, fee);\r\n\r\n            // Notify user\r\n            emit notify('Contract has been accepted.');\r\n\r\n        } else if (!_decision) {\r\n\r\n            // Refund monies to buyer\r\n            e.cancel();\r\n\r\n            // Notify user\r\n            emit notify('Contract cancelled.');\r\n\r\n        }\r\n\r\n    }\r\n\r\n    // Determines if buyer is satisfied with product. Asks for confirmation of satisfaction before funds are \r\n    // then paid to the seller\r\n    function buyerSatisfied(uint256 _id, bool _decision, bool _confirm) public {\r\n\r\n        // Check a contract doesnt already exist with that ID\r\n        require(this.exists(_id), \"Sorry a contract with that ID doesn't exist.\");\r\n\r\n        // Get contract\r\n        Escrow e = escrows[_id];\r\n\r\n        // Check msg.sender is the buyer\r\n        require(msg.sender == e.getBuyer(), 'Only the buyer of this contract can cancel offer.');\r\n\r\n        // Check state is waiting for buyer satisfaction\r\n        require(e.getState() == contractState.AWAITING_BUYER_SATISFACTION, 'Contract is not currently waiting for buyer satisfaction.');\r\n\r\n        // Make sure input entered is a positive bool\r\n        require(_decision && _confirm, 'To confirm contract satisfaction please ensure both your decision and confirmation are positive bool inputs.');\r\n\r\n        // Complete contract\r\n        e.complete();\r\n\r\n    }\r\n\r\n    // Admin function for the factory owner. If any disputes occur the factory owner can distribute the contract worth\r\n    // between the buyer and seller as they see fit\r\n    function ownerDecision(uint256 _id, uint256 _percent_seller, uint256 _percent_buyer) onlyOwner external {\r\n\r\n        // Check a contract doesnt already exist with that ID\r\n        require(this.exists(_id), \"Sorry a contract with that ID doesn't exist.\");\r\n\r\n        // Get contract\r\n        Escrow e = escrows[_id];\r\n\r\n        // Check that values entered add up to 100\r\n        require(_percent_seller + _percent_buyer == 100, 'Percents must add up to 100.');\r\n\r\n        // Distribute funds accordingly\r\n        e.ownerDistribute(_percent_seller,_percent_buyer);\r\n\r\n    }\r\n\r\n    // Gets the value of a contract\r\n    function getContractValue(uint256 _id) public view returns (uint256) {\r\n        \r\n        // Check a contract doesnt already exist with that ID\r\n        require(this.exists(_id), \"Sorry a contract with that ID doesn't exist.\");\r\n\r\n        // Get contract\r\n        Escrow e = escrows[_id];\r\n\r\n        // Return balance of contract\r\n        return address(e).balance;\r\n\r\n    }\r\n\r\n    // Gets the address of an escrow contract\r\n    function getContractAddress(uint256 _id) public view returns (address) {\r\n\r\n        // Check a contract doesnt already exist with that ID\r\n        require(this.exists(_id), \"Sorry a contract with that ID doesn't exist.\");\r\n\r\n        // Get contract\r\n        Escrow e = escrows[_id];\r\n\r\n        // Return address of contract\r\n        return address(e);\r\n\r\n    }\r\n\r\n    // Checks if a contract is already allocated a unique ID\r\n    function exists(uint256 _id) public view returns (bool) {\r\n        if(address(escrows[_id]) != address(0)) {\r\n            return true;\r\n        } else {\r\n            return false;\r\n        }\r\n    }\r\n\r\n    // Gets contract state\r\n    function getContractState(uint256 _id) public view returns (contractState) {\r\n        \r\n        // Check a contract doesnt already exist with that ID\r\n        require(this.exists(_id), \"Sorry a contract with that ID doesn't exist.\");\r\n\r\n        // Get contract\r\n        Escrow e = escrows[_id];\r\n\r\n        // Return address of contract\r\n        return e.getState();\r\n    }\r\n\r\n    // Gets unix timestamp when buyer confirms deposit\r\n    function getContractBuyerConfirmedTime(uint256 _id) public view returns (uint256) {\r\n\r\n        // Check a contract doesnt already exist with that ID\r\n        require(this.exists(_id), \"Sorry a contract with that ID doesn't exist.\");\r\n\r\n        // Get contract\r\n        Escrow e = escrows[_id];\r\n\r\n        // Return buyer confirmation timestamp of contract\r\n        return e.getBuyerConfirmedTimeStamp();\r\n        \r\n    }\r\n\r\n    // Gets unix timestamp when seller accepts offer\r\n    function getContractSellerConfirmedTimeStamp(uint256 _id) public view returns (uint256) {\r\n\r\n        // Check a contract doesnt already exist with that ID\r\n        require(this.exists(_id), \"Sorry a contract with that ID doesn't exist.\");\r\n\r\n        // Get contract\r\n        Escrow e = escrows[_id];\r\n\r\n        // Return address of contract\r\n        return e.getSellerConfirmedTimeStamp();\r\n        \r\n    }\r\n\r\n    // Gets unix timestamp when buyer is satisfied with sellers product\r\n    function getContractBuyerSatisfiedTimeStamp(uint256 _id) public view returns (uint256) {\r\n\r\n        // Check a contract doesnt already exist with that ID\r\n        require(this.exists(_id), \"Sorry a contract with that ID doesn't exist.\");\r\n\r\n        // Get contract\r\n        Escrow e = escrows[_id];\r\n\r\n        // Return address of contract\r\n        return e.getBuyerSatisfiedTimeStamp();\r\n        \r\n    }\r\n\r\n    // Gets unix timestmap when contract is completed\r\n    function getContractCompletedTimeStamp(uint256 _id) public view returns (uint256) {\r\n\r\n        // Check a contract doesnt already exist with that ID\r\n        require(this.exists(_id), \"Sorry a contract with that ID doesn't exist.\");\r\n\r\n        // Get contract\r\n        Escrow e = escrows[_id];\r\n\r\n        // Return address of contract\r\n        return e.getCompletedTimeStamp();\r\n        \r\n    }\r\n\r\n}\r\n\r\ncontract Escrow {\r\n\r\n    address payable public seller;\r\n    address payable public buyer;\r\n    address factory;\r\n\r\n    uint256 buyerConfirmedTimeStamp;\r\n    uint256 sellerConfirmedTimeStamp;\r\n    uint256 buyerSatisfiedTimeStamp;\r\n    uint256 completedTimeStamp;\r\n\r\n    contractState state;\r\n\r\n    modifier onlyFactory {\r\n        require(msg.sender == factory, 'Only the factory can edit this contract');\r\n        _;\r\n    }\r\n\r\n    constructor(address payable _seller, address payable _buyer, address _factory) {\r\n        seller = _seller;\r\n        buyer = _buyer;\r\n        factory = _factory;\r\n\r\n        state = contractState.AWAITING_BUYER_PAYMENT;\r\n    }\r\n\r\n    function getBuyer() public view returns (address) {\r\n        return buyer;\r\n    }\r\n\r\n    function getSeller() public view returns (address) {\r\n        return seller;\r\n    }\r\n\r\n    function getState() public view returns (contractState) {\r\n        return state;\r\n    }\r\n\r\n    function setState(contractState _state) onlyFactory public {\r\n        state = _state;\r\n    }\r\n\r\n    function setBuyerConfirmedTimeStamp(uint256 _time) onlyFactory public {\r\n        buyerConfirmedTimeStamp = _time;\r\n    }\r\n\r\n    function getBuyerConfirmedTimeStamp() public view returns (uint256) {\r\n        return buyerConfirmedTimeStamp;\r\n    }\r\n\r\n    function getSellerConfirmedTimeStamp() public view returns (uint256) {\r\n        return sellerConfirmedTimeStamp;\r\n    }\r\n\r\n    function getBuyerSatisfiedTimeStamp() public view returns (uint256) {\r\n        return buyerSatisfiedTimeStamp;\r\n    }\r\n\r\n    function getCompletedTimeStamp() public view returns (uint256) {\r\n        return completedTimeStamp;\r\n    }\r\n\r\n    fallback() external payable {}\r\n\r\n    function accept() onlyFactory public {\r\n\r\n        state = contractState.AWAITING_BUYER_SATISFACTION;\r\n\r\n        sellerConfirmedTimeStamp = block.timestamp;\r\n\r\n    }\r\n\r\n    function cancel() onlyFactory external {\r\n\r\n        buyer.transfer(address(this).balance);\r\n\r\n        completedTimeStamp = block.timestamp;\r\n\r\n        state  = contractState.CANCELLED;\r\n    }\r\n\r\n    function complete() onlyFactory external {\r\n\r\n        seller.transfer(address(this).balance);\r\n\r\n        buyerSatisfiedTimeStamp = block.timestamp;\r\n        completedTimeStamp = block.timestamp;\r\n\r\n        state = contractState.COMPLETE;\r\n\r\n    }\r\n\r\n    function sendFee(address payable _owner, uint256 _fee) onlyFactory external {\r\n\r\n        _owner.transfer((address(this).balance) * _fee/100);\r\n\r\n    }\r\n\r\n    function ownerDistribute(uint256 _percent_seller, uint256 _percent_buyer) onlyFactory external {\r\n\r\n        if(_percent_seller == 0) {\r\n            buyer.transfer(address(this).balance);\r\n        } else if (_percent_buyer == 0) {\r\n            seller.transfer(address(this).balance);\r\n        } else {\r\n            seller.transfer((address(this).balance) * _percent_seller/100);\r\n            buyer.transfer((address(this).balance) * _percent_buyer/100);\r\n        }\r\n\r\n    }\r\n\r\n}\r\n\r\n// Author: Etienne Cellier-Clarke, add me on LinkedIn. Cheers.",
  "sourcePath": "F:\\contractFactory\\contracts\\Escrow_Factory.sol",
  "compiler": {
    "name": "solc",
    "version": "0.8.8+commit.dddeac2f.Emscripten.clang"
  },
  "schemaVersion": "3.4.3",
  "updatedAt": "2021-09-29T14:09:28.038Z",
  "networkType": "ethereum",
  "devdoc": {
    "kind": "dev",
    "methods": {},
    "version": 1
  },
  "userdoc": {
    "kind": "user",
    "methods": {},
    "version": 1
  }
}